{
  "contractName": "Ower",
  "abi": [
    {
      "inputs": [
        {
          "internalType": "address",
          "name": "_token",
          "type": "address"
        },
        {
          "internalType": "uint256",
          "name": "_amount",
          "type": "uint256"
        }
      ],
      "name": "depositToken",
      "outputs": [],
      "stateMutability": "nonpayable",
      "type": "function"
    },
    {
      "inputs": [
        {
          "internalType": "address",
          "name": "_token",
          "type": "address"
        },
        {
          "internalType": "uint256",
          "name": "_amount",
          "type": "uint256"
        }
      ],
      "name": "widthdrawToken",
      "outputs": [],
      "stateMutability": "nonpayable",
      "type": "function"
    },
    {
      "inputs": [
        {
          "internalType": "address",
          "name": "_token",
          "type": "address"
        },
        {
          "internalType": "address",
          "name": "_user",
          "type": "address"
        }
      ],
      "name": "getBalance",
      "outputs": [
        {
          "internalType": "uint256",
          "name": "",
          "type": "uint256"
        }
      ],
      "stateMutability": "view",
      "type": "function",
      "constant": true
    }
  ],
  "bytecode": "0x608060405234801561001057600080fd5b50610694806100206000396000f3fe608060405234801561001057600080fd5b506004361061005e576000357c010000000000000000000000000000000000000000000000000000000090048063338b5dea146100635780635f5688101461007f578063d4fac45d1461009b575b600080fd5b61007d60048036038101906100789190610450565b6100cb565b005b61009960048036038101906100949190610450565b6101fe565b005b6100b560048036038101906100b09190610490565b610331565b6040516100c291906104df565b60405180910390f35b8173ffffffffffffffffffffffffffffffffffffffff166323b872dd3330846040518463ffffffff167c010000000000000000000000000000000000000000000000000000000002815260040161012493929190610509565b6020604051808303816000875af1158015610143573d6000803e3d6000fd5b505050506040513d601f19601f820116820180604052508101906101679190610578565b50806000803373ffffffffffffffffffffffffffffffffffffffff1673ffffffffffffffffffffffffffffffffffffffff16815260200190815260200160002060008473ffffffffffffffffffffffffffffffffffffffff1673ffffffffffffffffffffffffffffffffffffffff16815260200190815260200160002060008282546101f391906105d4565b925050819055505050565b8173ffffffffffffffffffffffffffffffffffffffff166323b872dd3033846040518463ffffffff167c010000000000000000000000000000000000000000000000000000000002815260040161025793929190610509565b6020604051808303816000875af1158015610276573d6000803e3d6000fd5b505050506040513d601f19601f8201168201806040525081019061029a9190610578565b50806000803373ffffffffffffffffffffffffffffffffffffffff1673ffffffffffffffffffffffffffffffffffffffff16815260200190815260200160002060008473ffffffffffffffffffffffffffffffffffffffff1673ffffffffffffffffffffffffffffffffffffffff1681526020019081526020016000206000828254610326919061062a565b925050819055505050565b60008060008373ffffffffffffffffffffffffffffffffffffffff1673ffffffffffffffffffffffffffffffffffffffff16815260200190815260200160002060008473ffffffffffffffffffffffffffffffffffffffff1673ffffffffffffffffffffffffffffffffffffffff16815260200190815260200160002054905092915050565b600080fd5b600073ffffffffffffffffffffffffffffffffffffffff82169050919050565b60006103e7826103bc565b9050919050565b6103f7816103dc565b811461040257600080fd5b50565b600081359050610414816103ee565b92915050565b6000819050919050565b61042d8161041a565b811461043857600080fd5b50565b60008135905061044a81610424565b92915050565b60008060408385031215610467576104666103b7565b5b600061047585828601610405565b92505060206104868582860161043b565b9150509250929050565b600080604083850312156104a7576104a66103b7565b5b60006104b585828601610405565b92505060206104c685828601610405565b9150509250929050565b6104d98161041a565b82525050565b60006020820190506104f460008301846104d0565b92915050565b610503816103dc565b82525050565b600060608201905061051e60008301866104fa565b61052b60208301856104fa565b61053860408301846104d0565b949350505050565b60008115159050919050565b61055581610540565b811461056057600080fd5b50565b6000815190506105728161054c565b92915050565b60006020828403121561058e5761058d6103b7565b5b600061059c84828501610563565b91505092915050565b7f4e487b7100000000000000000000000000000000000000000000000000000000600052601160045260246000fd5b60006105df8261041a565b91506105ea8361041a565b9250827fffffffffffffffffffffffffffffffffffffffffffffffffffffffffffffffff0382111561061f5761061e6105a5565b5b828201905092915050565b60006106358261041a565b91506106408361041a565b925082821015610653576106526105a5565b5b82820390509291505056fea26469706673582212201522fbe0b2989dd8998b6b2450a41e28e046b704806d1cddbbdfc41a00e1b20c64736f6c634300080c0033",
  "immutableReferences": {},
  "source": "pragma solidity 0.8.12;\r\n\r\nimport \"@openzeppelin/contracts/token/ERC20/IERC20.sol\";\r\n\r\ncontract Ower {\r\n    mapping(address => mapping(address => uint256)) private balance;\r\n    mapping(address => uint256) private depositTime;\r\n\r\n    function depositToken(address _token, uint256 _amount) public {\r\n        IERC20(_token).transferFrom(msg.sender, address(this), _amount);\r\n        balance[msg.sender][_token] += _amount;\r\n    }\r\n\r\n    function widthdrawToken(address _token, uint256 _amount) public {\r\n        IERC20(_token).transferFrom(address(this), msg.sender, _amount);\r\n        balance[msg.sender][_token] -= _amount;\r\n    }\r\n\r\n    function getBalance(address _token, address _user)\r\n        public\r\n        view\r\n        returns (uint256)\r\n    {\r\n        return balance[_user][_token];\r\n    }\r\n}\r\n",
  "sourcePath": "C:\\Users\\Tristan\\Desktop\\ALyra\\Defi-4\\contracts\\Ower.sol",
  "compiler": {
    "name": "solc",
    "version": "0.8.12+commit.f00d7308.Emscripten.clang"
  },
  "schemaVersion": "3.4.4",
  "updatedAt": "2022-03-20T14:53:13.226Z",
  "networkType": "ethereum",
  "devdoc": {
    "kind": "dev",
    "methods": {},
    "version": 1
  },
  "userdoc": {
    "kind": "user",
    "methods": {},
    "version": 1
  }
}