{
  "contractName": "Ower",
  "abi": [
    {
      "inputs": [
        {
          "internalType": "address",
          "name": "_registry",
          "type": "address"
        }
      ],
      "stateMutability": "nonpayable",
      "type": "constructor"
    },
    {
      "anonymous": false,
      "inputs": [
        {
          "indexed": true,
          "internalType": "bytes32",
          "name": "id",
          "type": "bytes32"
        }
      ],
      "name": "ChainlinkCancelled",
      "type": "event"
    },
    {
      "anonymous": false,
      "inputs": [
        {
          "indexed": true,
          "internalType": "bytes32",
          "name": "id",
          "type": "bytes32"
        }
      ],
      "name": "ChainlinkFulfilled",
      "type": "event"
    },
    {
      "anonymous": false,
      "inputs": [
        {
          "indexed": true,
          "internalType": "bytes32",
          "name": "id",
          "type": "bytes32"
        }
      ],
      "name": "ChainlinkRequested",
      "type": "event"
    },
    {
      "inputs": [],
      "name": "rate",
      "outputs": [
        {
          "internalType": "uint256",
          "name": "",
          "type": "uint256"
        }
      ],
      "stateMutability": "view",
      "type": "function"
    },
    {
      "inputs": [
        {
          "internalType": "address",
          "name": "",
          "type": "address"
        },
        {
          "internalType": "address",
          "name": "",
          "type": "address"
        }
      ],
      "name": "staker",
      "outputs": [
        {
          "internalType": "uint256",
          "name": "balance",
          "type": "uint256"
        },
        {
          "internalType": "uint256",
          "name": "FirstDepositTime",
          "type": "uint256"
        },
        {
          "internalType": "uint256",
          "name": "reward",
          "type": "uint256"
        },
        {
          "internalType": "uint256",
          "name": "decimals",
          "type": "uint256"
        }
      ],
      "stateMutability": "view",
      "type": "function"
    },
    {
      "inputs": [
        {
          "internalType": "address",
          "name": "",
          "type": "address"
        }
      ],
      "name": "tokenPriceFeedMapping",
      "outputs": [
        {
          "internalType": "address",
          "name": "",
          "type": "address"
        }
      ],
      "stateMutability": "view",
      "type": "function"
    },
    {
      "inputs": [
        {
          "internalType": "address",
          "name": "_token",
          "type": "address"
        },
        {
          "internalType": "uint256",
          "name": "_amount",
          "type": "uint256"
        },
        {
          "internalType": "uint256",
          "name": "decimals",
          "type": "uint256"
        }
      ],
      "name": "depositToken",
      "outputs": [],
      "stateMutability": "nonpayable",
      "type": "function"
    },
    {
      "inputs": [
        {
          "internalType": "address",
          "name": "_token",
          "type": "address"
        },
        {
          "internalType": "uint256",
          "name": "_amount",
          "type": "uint256"
        }
      ],
      "name": "widthdrawToken",
      "outputs": [],
      "stateMutability": "nonpayable",
      "type": "function"
    },
    {
      "inputs": [
        {
          "internalType": "address",
          "name": "_token",
          "type": "address"
        },
        {
          "internalType": "address",
          "name": "USD",
          "type": "address"
        },
        {
          "internalType": "uint256",
          "name": "decimals",
          "type": "uint256"
        }
      ],
      "name": "redeemReward",
      "outputs": [],
      "stateMutability": "nonpayable",
      "type": "function"
    },
    {
      "inputs": [
        {
          "internalType": "address",
          "name": "_token",
          "type": "address"
        }
      ],
      "name": "setRewardValue",
      "outputs": [],
      "stateMutability": "nonpayable",
      "type": "function"
    },
    {
      "inputs": [
        {
          "internalType": "address",
          "name": "base",
          "type": "address"
        },
        {
          "internalType": "address",
          "name": "quote",
          "type": "address"
        }
      ],
      "name": "getPrice",
      "outputs": [
        {
          "internalType": "int256",
          "name": "",
          "type": "int256"
        }
      ],
      "stateMutability": "view",
      "type": "function"
    }
  ],
  "bytecode": "0x608060405260016004556064600a553480156200001b57600080fd5b50604051620010c9380380620010c98339818101604052810190620000419190620000f3565b80600860006101000a81548173ffffffffffffffffffffffffffffffffffffffff021916908373ffffffffffffffffffffffffffffffffffffffff1602179055505062000125565b600080fd5b600073ffffffffffffffffffffffffffffffffffffffff82169050919050565b6000620000bb826200008e565b9050919050565b620000cd81620000ae565b8114620000d957600080fd5b50565b600081519050620000ed81620000c2565b92915050565b6000602082840312156200010c576200010b62000089565b5b60006200011c84828501620000dc565b91505092915050565b610f9480620001356000396000f3fe608060405234801561001057600080fd5b50600436106100a5576000357c01000000000000000000000000000000000000000000000000000000009004806399c6d2de1161007857806399c6d2de14610130578063ac41865a1461014c578063c2f246b21461017c578063f52f04fb146101af576100a5565b80631682f149146100aa57806327927b3e146100c65780632c4e722e146100f65780635f56881014610114575b600080fd5b6100c460048036038101906100bf91906109ac565b6101cb565b005b6100e060048036038101906100db91906109ff565b61026a565b6040516100ed9190610a3b565b60405180910390f35b6100fe61029d565b60405161010b9190610a65565b60405180910390f35b61012e60048036038101906101299190610a80565b6102a3565b005b61014a60048036038101906101459190610ac0565b61049c565b005b61016660048036038101906101619190610b13565b610761565b6040516101739190610b6c565b60405180910390f35b61019660048036038101906101919190610b13565b61084e565b6040516101a69493929190610b87565b60405180910390f35b6101c960048036038101906101c491906109ff565b61088b565b005b62015180600760003373ffffffffffffffffffffffffffffffffffffffff1673ffffffffffffffffffffffffffffffffffffffff16815260200190815260200160002060008573ffffffffffffffffffffffffffffffffffffffff1673ffffffffffffffffffffffffffffffffffffffff168152602001908152602001600020600101546102599190610bfb565b42101561026557600080fd5b505050565b60066020528060005260406000206000915054906101000a900473ffffffffffffffffffffffffffffffffffffffff1681565b600a5481565b80600760003373ffffffffffffffffffffffffffffffffffffffff1673ffffffffffffffffffffffffffffffffffffffff16815260200190815260200160002060008473ffffffffffffffffffffffffffffffffffffffff1673ffffffffffffffffffffffffffffffffffffffff168152602001908152602001600020600001541015610365576040517f08c379a000000000000000000000000000000000000000000000000000000000815260040161035c90610cae565b60405180910390fd5b8173ffffffffffffffffffffffffffffffffffffffff166323b872dd3033846040518463ffffffff167c01000000000000000000000000000000000000000000000000000000000281526004016103be93929190610cce565b6020604051808303816000875af11580156103dd573d6000803e3d6000fd5b505050506040513d601f19601f820116820180604052508101906104019190610d3d565b5080600760003373ffffffffffffffffffffffffffffffffffffffff1673ffffffffffffffffffffffffffffffffffffffff16815260200190815260200160002060008473ffffffffffffffffffffffffffffffffffffffff1673ffffffffffffffffffffffffffffffffffffffff16815260200190815260200160002060000160008282546104919190610d6a565b925050819055505050565b8273ffffffffffffffffffffffffffffffffffffffff166323b872dd3330856040518463ffffffff167c01000000000000000000000000000000000000000000000000000000000281526004016104f593929190610cce565b6020604051808303816000875af1158015610514573d6000803e3d6000fd5b505050506040513d601f19601f820116820180604052508101906105389190610d3d565b5081600760003373ffffffffffffffffffffffffffffffffffffffff1673ffffffffffffffffffffffffffffffffffffffff16815260200190815260200160002060008573ffffffffffffffffffffffffffffffffffffffff1673ffffffffffffffffffffffffffffffffffffffff16815260200190815260200160002060000160008282546105c89190610bfb565b9250508190555080600760003373ffffffffffffffffffffffffffffffffffffffff1673ffffffffffffffffffffffffffffffffffffffff16815260200190815260200160002060008573ffffffffffffffffffffffffffffffffffffffff1673ffffffffffffffffffffffffffffffffffffffff168152602001908152602001600020600301819055506019600760003373ffffffffffffffffffffffffffffffffffffffff1673ffffffffffffffffffffffffffffffffffffffff16815260200190815260200160002060008573ffffffffffffffffffffffffffffffffffffffff1673ffffffffffffffffffffffffffffffffffffffff1681526020019081526020016000206002018190555042600760003373ffffffffffffffffffffffffffffffffffffffff1673ffffffffffffffffffffffffffffffffffffffff16815260200190815260200160002060008573ffffffffffffffffffffffffffffffffffffffff1673ffffffffffffffffffffffffffffffffffffffff16815260200190815260200160002060010181905550505050565b6000806000806000806000600860009054906101000a900473ffffffffffffffffffffffffffffffffffffffff1673ffffffffffffffffffffffffffffffffffffffff1663bcfd032d8a8a6040518363ffffffff167c01000000000000000000000000000000000000000000000000000000000281526004016107e5929190610d9e565b60a060405180830381865afa158015610802573d6000803e3d6000fd5b505050506040513d601f19601f820116820180604052508101906108269190610e4a565b945094509450945094506305f5e100846108409190610ef4565b965050505050505092915050565b6007602052816000526040600020602052806000526040600020600091509150508060000154908060010154908060020154908060030154905084565b6019600760003373ffffffffffffffffffffffffffffffffffffffff1673ffffffffffffffffffffffffffffffffffffffff16815260200190815260200160002060008373ffffffffffffffffffffffffffffffffffffffff1673ffffffffffffffffffffffffffffffffffffffff1681526020019081526020016000206002018190555050565b600080fd5b600073ffffffffffffffffffffffffffffffffffffffff82169050919050565b600061094382610918565b9050919050565b61095381610938565b811461095e57600080fd5b50565b6000813590506109708161094a565b92915050565b6000819050919050565b61098981610976565b811461099457600080fd5b50565b6000813590506109a681610980565b92915050565b6000806000606084860312156109c5576109c4610913565b5b60006109d386828701610961565b93505060206109e486828701610961565b92505060406109f586828701610997565b9150509250925092565b600060208284031215610a1557610a14610913565b5b6000610a2384828501610961565b91505092915050565b610a3581610938565b82525050565b6000602082019050610a506000830184610a2c565b92915050565b610a5f81610976565b82525050565b6000602082019050610a7a6000830184610a56565b92915050565b60008060408385031215610a9757610a96610913565b5b6000610aa585828601610961565b9250506020610ab685828601610997565b9150509250929050565b600080600060608486031215610ad957610ad8610913565b5b6000610ae786828701610961565b9350506020610af886828701610997565b9250506040610b0986828701610997565b9150509250925092565b60008060408385031215610b2a57610b29610913565b5b6000610b3885828601610961565b9250506020610b4985828601610961565b9150509250929050565b6000819050919050565b610b6681610b53565b82525050565b6000602082019050610b816000830184610b5d565b92915050565b6000608082019050610b9c6000830187610a56565b610ba96020830186610a56565b610bb66040830185610a56565b610bc36060830184610a56565b95945050505050565b7f4e487b7100000000000000000000000000000000000000000000000000000000600052601160045260246000fd5b6000610c0682610976565b9150610c1183610976565b9250827fffffffffffffffffffffffffffffffffffffffffffffffffffffffffffffffff03821115610c4657610c45610bcc565b5b828201905092915050565b600082825260208201905092915050565b7f4e6f7420656e6f7567687420746f6b656e000000000000000000000000000000600082015250565b6000610c98601183610c51565b9150610ca382610c62565b602082019050919050565b60006020820190508181036000830152610cc781610c8b565b9050919050565b6000606082019050610ce36000830186610a2c565b610cf06020830185610a2c565b610cfd6040830184610a56565b949350505050565b60008115159050919050565b610d1a81610d05565b8114610d2557600080fd5b50565b600081519050610d3781610d11565b92915050565b600060208284031215610d5357610d52610913565b5b6000610d6184828501610d28565b91505092915050565b6000610d7582610976565b9150610d8083610976565b925082821015610d9357610d92610bcc565b5b828203905092915050565b6000604082019050610db36000830185610a2c565b610dc06020830184610a2c565b9392505050565b600069ffffffffffffffffffff82169050919050565b610de681610dc7565b8114610df157600080fd5b50565b600081519050610e0381610ddd565b92915050565b610e1281610b53565b8114610e1d57600080fd5b50565b600081519050610e2f81610e09565b92915050565b600081519050610e4481610980565b92915050565b600080600080600060a08688031215610e6657610e65610913565b5b6000610e7488828901610df4565b9550506020610e8588828901610e20565b9450506040610e9688828901610e35565b9350506060610ea788828901610e35565b9250506080610eb888828901610df4565b9150509295509295909350565b7f4e487b7100000000000000000000000000000000000000000000000000000000600052601260045260246000fd5b6000610eff82610b53565b9150610f0a83610b53565b925082610f1a57610f19610ec5565b5b600160000383147f800000000000000000000000000000000000000000000000000000000000000083141615610f5357610f52610bcc565b5b82820590509291505056fea2646970667358221220bdf9944f1b1162c4108b570da35d2cb6df719a646356302f214020c1c76218f564736f6c634300080c0033",
  "immutableReferences": {},
  "source": "pragma solidity 0.8.12;\r\n\r\nimport \"./Rec.sol\";\r\nimport \"@openzeppelin/contracts/token/ERC20/IERC20.sol\";\r\nimport \"@chainlink/contracts/src/v0.8/interfaces/AggregatorV3Interface.sol\";\r\nimport \"@chainlink/contracts/src/v0.8/ChainlinkClient.sol\";\r\nimport \"@chainlink/contracts/src/v0.8/interfaces/FeedRegistryInterface.sol\";\r\n\r\ncontract Ower is ChainlinkClient {\r\n    struct Staker {\r\n        uint256 balance;\r\n        uint256 FirstDepositTime;\r\n        uint256 reward;\r\n        uint256 decimals;\r\n    }\r\n\r\n    mapping(address => address) public tokenPriceFeedMapping;\r\n    mapping(address => mapping(address => Staker)) public staker;\r\n\r\n    FeedRegistryInterface internal registry;\r\n    Rec rec;\r\n    uint256 public rate = 100;\r\n\r\n    constructor(address _registry) {\r\n        registry = FeedRegistryInterface(_registry);\r\n    }\r\n\r\n    function depositToken(\r\n        address _token,\r\n        uint256 _amount,\r\n        uint256 decimals\r\n    ) public {\r\n        IERC20(_token).transferFrom(msg.sender, address(this), _amount);\r\n        staker[msg.sender][_token].balance += _amount;\r\n        staker[msg.sender][_token].decimals = decimals;\r\n        staker[msg.sender][_token].reward = uint256(25);\r\n        staker[msg.sender][_token].FirstDepositTime = block.timestamp;\r\n    }\r\n\r\n    function widthdrawToken(address _token, uint256 _amount) public {\r\n        require(\r\n            staker[msg.sender][_token].balance >= _amount,\r\n            \"Not enought token\"\r\n        );\r\n        IERC20(_token).transferFrom(address(this), msg.sender, _amount);\r\n        staker[msg.sender][_token].balance -= _amount;\r\n    }\r\n\r\n    function redeemReward(\r\n        address _token,\r\n        address USD,\r\n        uint256 decimals\r\n    ) public {\r\n        require(\r\n            block.timestamp >=\r\n                staker[msg.sender][_token].FirstDepositTime + 24 hours\r\n        );\r\n        // rec.faucet(\r\n        //     msg.sender,\r\n        //     rewardBalance(_token, msg.sender, USD, decimals)\r\n        // );\r\n    }\r\n\r\n    function setRewardValue(address _token) public {\r\n        staker[msg.sender][_token].reward = uint256(25);\r\n    }\r\n\r\n    function getPrice(address base, address quote)\r\n        public\r\n        view\r\n        returns (int256)\r\n    {\r\n        int8 decimals;\r\n        (\r\n            uint80 roundID,\r\n            int256 price,\r\n            uint256 startedAt,\r\n            uint256 timeStamp,\r\n            uint80 answeredInRound\r\n        ) = registry.latestRoundData(base, quote);\r\n        return price / 10**8;\r\n    }\r\n}\r\n",
  "sourcePath": "C:\\Users\\Tristan\\Desktop\\ALyra\\Defi-4\\contracts\\Ower.sol",
  "compiler": {
    "name": "solc",
    "version": "0.8.12+commit.f00d7308.Emscripten.clang"
  },
  "schemaVersion": "3.4.4",
  "updatedAt": "2022-03-28T10:15:14.825Z",
  "devdoc": {
    "kind": "dev",
    "methods": {},
    "version": 1
  },
  "userdoc": {
    "kind": "user",
    "methods": {},
    "version": 1
  }
}