{
  "contractName": "Ower",
  "abi": [
    {
      "anonymous": false,
      "inputs": [
        {
          "indexed": true,
          "internalType": "bytes32",
          "name": "id",
          "type": "bytes32"
        }
      ],
      "name": "ChainlinkCancelled",
      "type": "event"
    },
    {
      "anonymous": false,
      "inputs": [
        {
          "indexed": true,
          "internalType": "bytes32",
          "name": "id",
          "type": "bytes32"
        }
      ],
      "name": "ChainlinkFulfilled",
      "type": "event"
    },
    {
      "anonymous": false,
      "inputs": [
        {
          "indexed": true,
          "internalType": "bytes32",
          "name": "id",
          "type": "bytes32"
        }
      ],
      "name": "ChainlinkRequested",
      "type": "event"
    },
    {
      "inputs": [],
      "name": "rate",
      "outputs": [
        {
          "internalType": "uint256",
          "name": "",
          "type": "uint256"
        }
      ],
      "stateMutability": "view",
      "type": "function",
      "constant": true
    },
    {
      "inputs": [
        {
          "internalType": "address",
          "name": "",
          "type": "address"
        }
      ],
      "name": "tokenPriceFeedMapping",
      "outputs": [
        {
          "internalType": "address",
          "name": "",
          "type": "address"
        }
      ],
      "stateMutability": "view",
      "type": "function",
      "constant": true
    },
    {
      "inputs": [
        {
          "internalType": "address",
          "name": "_token",
          "type": "address"
        },
        {
          "internalType": "uint256",
          "name": "_amount",
          "type": "uint256"
        }
      ],
      "name": "depositToken",
      "outputs": [],
      "stateMutability": "nonpayable",
      "type": "function"
    },
    {
      "inputs": [
        {
          "internalType": "address",
          "name": "_token",
          "type": "address"
        },
        {
          "internalType": "uint256",
          "name": "_amount",
          "type": "uint256"
        }
      ],
      "name": "widthdrawToken",
      "outputs": [],
      "stateMutability": "nonpayable",
      "type": "function"
    },
    {
      "inputs": [],
      "name": "redeemReward",
      "outputs": [],
      "stateMutability": "nonpayable",
      "type": "function"
    },
    {
      "inputs": [
        {
          "internalType": "address",
          "name": "_token",
          "type": "address"
        },
        {
          "internalType": "address",
          "name": "_user",
          "type": "address"
        }
      ],
      "name": "getBalance",
      "outputs": [
        {
          "internalType": "uint256",
          "name": "",
          "type": "uint256"
        }
      ],
      "stateMutability": "view",
      "type": "function",
      "constant": true
    },
    {
      "inputs": [
        {
          "internalType": "address",
          "name": "_token",
          "type": "address"
        }
      ],
      "name": "getLatestPrice",
      "outputs": [
        {
          "internalType": "int256",
          "name": "",
          "type": "int256"
        }
      ],
      "stateMutability": "view",
      "type": "function",
      "constant": true
    }
  ],
  "bytecode": "0x6080604052600160045534801561001557600080fd5b50610b8d806100256000396000f3fe608060405234801561001057600080fd5b506004361061009a576000357c010000000000000000000000000000000000000000000000000000000090048063338b5dea11610078578063338b5dea1461011d5780635f56881014610139578063741f76cd14610155578063d4fac45d1461015f5761009a565b806316345f181461009f57806327927b3e146100cf5780632c4e722e146100ff575b600080fd5b6100b960048036038101906100b4919061071c565b61018f565b6040516100c69190610762565b60405180910390f35b6100e960048036038101906100e4919061071c565b610232565b6040516100f6919061078c565b60405180910390f35b610107610265565b60405161011491906107c0565b60405180910390f35b61013760048036038101906101329190610807565b61026b565b005b610153600480360381019061014e9190610807565b6103e3565b005b61015d6105d6565b005b61017960048036038101906101749190610847565b610632565b60405161018691906107c0565b60405180910390f35b60008082905060008173ffffffffffffffffffffffffffffffffffffffff1663feaf968c6040518163ffffffff167c010000000000000000000000000000000000000000000000000000000002815260040160a060405180830381865afa1580156101fe573d6000803e3d6000fd5b505050506040513d601f19601f82011682018060405250810190610222919061090a565b5050509150508092505050919050565b60096020528060005260406000206000915054906101000a900473ffffffffffffffffffffffffffffffffffffffff1681565b600b5481565b8173ffffffffffffffffffffffffffffffffffffffff166323b872dd3330846040518463ffffffff167c01000000000000000000000000000000000000000000000000000000000281526004016102c493929190610985565b6020604051808303816000875af11580156102e3573d6000803e3d6000fd5b505050506040513d601f19601f8201168201806040525081019061030791906109f4565b5080600660003373ffffffffffffffffffffffffffffffffffffffff1673ffffffffffffffffffffffffffffffffffffffff16815260200190815260200160002060008473ffffffffffffffffffffffffffffffffffffffff1673ffffffffffffffffffffffffffffffffffffffff16815260200190815260200160002060008282546103949190610a50565b9250508190555042600760003373ffffffffffffffffffffffffffffffffffffffff1673ffffffffffffffffffffffffffffffffffffffff168152602001908152602001600020819055505050565b80600660003373ffffffffffffffffffffffffffffffffffffffff1673ffffffffffffffffffffffffffffffffffffffff16815260200190815260200160002060008473ffffffffffffffffffffffffffffffffffffffff1673ffffffffffffffffffffffffffffffffffffffff1681526020019081526020016000205410156104a2576040517f08c379a000000000000000000000000000000000000000000000000000000000815260040161049990610b03565b60405180910390fd5b8173ffffffffffffffffffffffffffffffffffffffff166323b872dd3033846040518463ffffffff167c01000000000000000000000000000000000000000000000000000000000281526004016104fb93929190610985565b6020604051808303816000875af115801561051a573d6000803e3d6000fd5b505050506040513d601f19601f8201168201806040525081019061053e91906109f4565b5080600660003373ffffffffffffffffffffffffffffffffffffffff1673ffffffffffffffffffffffffffffffffffffffff16815260200190815260200160002060008473ffffffffffffffffffffffffffffffffffffffff1673ffffffffffffffffffffffffffffffffffffffff16815260200190815260200160002060008282546105cb9190610b23565b925050819055505050565b62015180600760003373ffffffffffffffffffffffffffffffffffffffff1673ffffffffffffffffffffffffffffffffffffffff168152602001908152602001600020546106249190610a50565b42101561063057600080fd5b565b6000600660008373ffffffffffffffffffffffffffffffffffffffff1673ffffffffffffffffffffffffffffffffffffffff16815260200190815260200160002060008473ffffffffffffffffffffffffffffffffffffffff1673ffffffffffffffffffffffffffffffffffffffff16815260200190815260200160002054905092915050565b600080fd5b600073ffffffffffffffffffffffffffffffffffffffff82169050919050565b60006106e9826106be565b9050919050565b6106f9816106de565b811461070457600080fd5b50565b600081359050610716816106f0565b92915050565b600060208284031215610732576107316106b9565b5b600061074084828501610707565b91505092915050565b6000819050919050565b61075c81610749565b82525050565b60006020820190506107776000830184610753565b92915050565b610786816106de565b82525050565b60006020820190506107a1600083018461077d565b92915050565b6000819050919050565b6107ba816107a7565b82525050565b60006020820190506107d560008301846107b1565b92915050565b6107e4816107a7565b81146107ef57600080fd5b50565b600081359050610801816107db565b92915050565b6000806040838503121561081e5761081d6106b9565b5b600061082c85828601610707565b925050602061083d858286016107f2565b9150509250929050565b6000806040838503121561085e5761085d6106b9565b5b600061086c85828601610707565b925050602061087d85828601610707565b9150509250929050565b600069ffffffffffffffffffff82169050919050565b6108a681610887565b81146108b157600080fd5b50565b6000815190506108c38161089d565b92915050565b6108d281610749565b81146108dd57600080fd5b50565b6000815190506108ef816108c9565b92915050565b600081519050610904816107db565b92915050565b600080600080600060a08688031215610926576109256106b9565b5b6000610934888289016108b4565b9550506020610945888289016108e0565b9450506040610956888289016108f5565b9350506060610967888289016108f5565b9250506080610978888289016108b4565b9150509295509295909350565b600060608201905061099a600083018661077d565b6109a7602083018561077d565b6109b460408301846107b1565b949350505050565b60008115159050919050565b6109d1816109bc565b81146109dc57600080fd5b50565b6000815190506109ee816109c8565b92915050565b600060208284031215610a0a57610a096106b9565b5b6000610a18848285016109df565b91505092915050565b7f4e487b7100000000000000000000000000000000000000000000000000000000600052601160045260246000fd5b6000610a5b826107a7565b9150610a66836107a7565b9250827fffffffffffffffffffffffffffffffffffffffffffffffffffffffffffffffff03821115610a9b57610a9a610a21565b5b828201905092915050565b600082825260208201905092915050565b7f4e6f7420656e6f7567687420746f6b656e000000000000000000000000000000600082015250565b6000610aed601183610aa6565b9150610af882610ab7565b602082019050919050565b60006020820190508181036000830152610b1c81610ae0565b9050919050565b6000610b2e826107a7565b9150610b39836107a7565b925082821015610b4c57610b4b610a21565b5b82820390509291505056fea2646970667358221220cc3060240fa865bd8b89e3706aab26e15f2e28c90ce1df1f20f399349d00276e64736f6c634300080c0033",
  "immutableReferences": {},
  "source": "pragma solidity 0.8.12;\r\n\r\nimport \"./Rec.sol\";\r\nimport \"@openzeppelin/contracts/token/ERC20/IERC20.sol\";\r\nimport \"@chainlink/contracts/src/v0.8/interfaces/AggregatorV3Interface.sol\";\r\nimport \"@chainlink/contracts/src/v0.8/ChainlinkClient.sol\";\r\n\r\ncontract Ower is ChainlinkClient {\r\n    mapping(address => mapping(address => uint256)) private balance;\r\n    mapping(address => uint256) private depositTime;\r\n    mapping(address => uint256) private reward;\r\n    mapping(address => address) public tokenPriceFeedMapping;\r\n\r\n    Rec rec;\r\n    uint256 public rate;\r\n\r\n    function depositToken(address _token, uint256 _amount) public {\r\n        IERC20(_token).transferFrom(msg.sender, address(this), _amount);\r\n        balance[msg.sender][_token] += _amount;\r\n        depositTime[msg.sender] = block.timestamp;\r\n    }\r\n\r\n    function widthdrawToken(address _token, uint256 _amount) public {\r\n        require(balance[msg.sender][_token] >= _amount, \"Not enought token\");\r\n        IERC20(_token).transferFrom(address(this), msg.sender, _amount);\r\n        balance[msg.sender][_token] -= _amount;\r\n    }\r\n\r\n    function redeemReward() public {\r\n        require(block.timestamp >= depositTime[msg.sender] + 24 hours);\r\n        // rec.faucet(msg.sender, reward);\r\n    }\r\n\r\n    function getBalance(address _token, address _user)\r\n        public\r\n        view\r\n        returns (uint256)\r\n    {\r\n        return balance[_user][_token];\r\n    }\r\n\r\n    function getLatestPrice(address _token) public view returns (int256) {\r\n        AggregatorV3Interface priceFeed = AggregatorV3Interface(_token);\r\n        (\r\n            ,\r\n            /*uint80 roundID*/\r\n            int256 price,\r\n            ,\r\n            ,\r\n\r\n        ) = /*uint startedAt*/\r\n            /*uint timeStamp*/\r\n            /*uint80 answeredInRound*/\r\n            priceFeed.latestRoundData();\r\n        return price;\r\n    }\r\n}\r\n",
  "sourcePath": "C:\\Users\\Tristan\\Desktop\\ALyra\\Defi-4\\contracts\\Ower.sol",
  "compiler": {
    "name": "solc",
    "version": "0.8.12+commit.f00d7308.Emscripten.clang"
  },
  "schemaVersion": "3.4.4",
  "updatedAt": "2022-03-20T20:10:58.499Z",
  "networkType": "ethereum",
  "devdoc": {
    "kind": "dev",
    "methods": {},
    "version": 1
  },
  "userdoc": {
    "kind": "user",
    "methods": {},
    "version": 1
  }
}