{
  "contractName": "Ower",
  "abi": [
    {
      "anonymous": false,
      "inputs": [
        {
          "indexed": true,
          "internalType": "bytes32",
          "name": "id",
          "type": "bytes32"
        }
      ],
      "name": "ChainlinkCancelled",
      "type": "event"
    },
    {
      "anonymous": false,
      "inputs": [
        {
          "indexed": true,
          "internalType": "bytes32",
          "name": "id",
          "type": "bytes32"
        }
      ],
      "name": "ChainlinkFulfilled",
      "type": "event"
    },
    {
      "anonymous": false,
      "inputs": [
        {
          "indexed": true,
          "internalType": "bytes32",
          "name": "id",
          "type": "bytes32"
        }
      ],
      "name": "ChainlinkRequested",
      "type": "event"
    },
    {
      "inputs": [
        {
          "internalType": "address",
          "name": "",
          "type": "address"
        },
        {
          "internalType": "address",
          "name": "",
          "type": "address"
        }
      ],
      "name": "depositValue",
      "outputs": [
        {
          "internalType": "uint256",
          "name": "",
          "type": "uint256"
        }
      ],
      "stateMutability": "view",
      "type": "function",
      "constant": true
    },
    {
      "inputs": [],
      "name": "rate",
      "outputs": [
        {
          "internalType": "uint256",
          "name": "",
          "type": "uint256"
        }
      ],
      "stateMutability": "view",
      "type": "function",
      "constant": true
    },
    {
      "inputs": [
        {
          "internalType": "address",
          "name": "",
          "type": "address"
        }
      ],
      "name": "tokenPriceFeedMapping",
      "outputs": [
        {
          "internalType": "address",
          "name": "",
          "type": "address"
        }
      ],
      "stateMutability": "view",
      "type": "function",
      "constant": true
    },
    {
      "inputs": [
        {
          "internalType": "address",
          "name": "_token",
          "type": "address"
        },
        {
          "internalType": "uint256",
          "name": "_amount",
          "type": "uint256"
        },
        {
          "internalType": "uint256",
          "name": "value",
          "type": "uint256"
        }
      ],
      "name": "depositToken",
      "outputs": [],
      "stateMutability": "nonpayable",
      "type": "function"
    },
    {
      "inputs": [
        {
          "internalType": "address",
          "name": "_token",
          "type": "address"
        },
        {
          "internalType": "uint256",
          "name": "_amount",
          "type": "uint256"
        },
        {
          "internalType": "uint256",
          "name": "value",
          "type": "uint256"
        }
      ],
      "name": "widthdrawToken",
      "outputs": [],
      "stateMutability": "nonpayable",
      "type": "function"
    },
    {
      "inputs": [
        {
          "internalType": "address",
          "name": "_token",
          "type": "address"
        }
      ],
      "name": "redeemReward",
      "outputs": [],
      "stateMutability": "nonpayable",
      "type": "function"
    },
    {
      "inputs": [
        {
          "internalType": "address",
          "name": "_token",
          "type": "address"
        }
      ],
      "name": "getReward",
      "outputs": [
        {
          "internalType": "uint256",
          "name": "",
          "type": "uint256"
        }
      ],
      "stateMutability": "nonpayable",
      "type": "function"
    },
    {
      "inputs": [
        {
          "internalType": "address",
          "name": "_token",
          "type": "address"
        },
        {
          "internalType": "address",
          "name": "_user",
          "type": "address"
        },
        {
          "internalType": "uint256",
          "name": "decimals",
          "type": "uint256"
        }
      ],
      "name": "getBalance",
      "outputs": [
        {
          "internalType": "uint256",
          "name": "",
          "type": "uint256"
        }
      ],
      "stateMutability": "view",
      "type": "function",
      "constant": true
    },
    {
      "inputs": [
        {
          "internalType": "address",
          "name": "_token",
          "type": "address"
        },
        {
          "internalType": "address",
          "name": "_user",
          "type": "address"
        }
      ],
      "name": "addressBalance",
      "outputs": [
        {
          "internalType": "uint256",
          "name": "",
          "type": "uint256"
        }
      ],
      "stateMutability": "view",
      "type": "function",
      "constant": true
    }
  ],
  "bytecode": "0x608060405260016004556001600d5534801561001a57600080fd5b506111a88061002a6000396000f3fe608060405234801561001057600080fd5b50600436106100b0576000357c01000000000000000000000000000000000000000000000000000000009004806365a38f461161008357806365a38f461461014f57806399c6d2de1461017f578063ac8e261a1461019b578063b286de76146101cb578063c00007b0146101e7576100b0565b806327927b3e146100b55780632c4e722e146100e557806339b59d761461010357806361e5f3541461011f575b600080fd5b6100cf60048036038101906100ca9190610ba2565b610217565b6040516100dc9190610bde565b60405180910390f35b6100ed61024a565b6040516100fa9190610c12565b60405180910390f35b61011d60048036038101906101189190610c59565b610250565b005b61013960048036038101906101349190610cac565b6104e2565b6040516101469190610c12565b60405180910390f35b61016960048036038101906101649190610cff565b610581565b6040516101769190610c12565b60405180910390f35b61019960048036038101906101949190610c59565b610608565b005b6101b560048036038101906101b09190610cff565b61081f565b6040516101c29190610c12565b60405180910390f35b6101e560048036038101906101e09190610ba2565b610844565b005b61020160048036038101906101fc9190610ba2565b610ab9565b60405161020e9190610c12565b60405180910390f35b600a6020528060005260406000206000915054906101000a900473ffffffffffffffffffffffffffffffffffffffff1681565b600d5481565b81600660003373ffffffffffffffffffffffffffffffffffffffff1673ffffffffffffffffffffffffffffffffffffffff16815260200190815260200160002060008573ffffffffffffffffffffffffffffffffffffffff1673ffffffffffffffffffffffffffffffffffffffff16815260200190815260200160002054101561030f576040517f08c379a000000000000000000000000000000000000000000000000000000000815260040161030690610d9c565b60405180910390fd5b8273ffffffffffffffffffffffffffffffffffffffff166323b872dd3033856040518463ffffffff167c010000000000000000000000000000000000000000000000000000000002815260040161036893929190610dbc565b6020604051808303816000875af1158015610387573d6000803e3d6000fd5b505050506040513d601f19601f820116820180604052508101906103ab9190610e2b565b5081600660003373ffffffffffffffffffffffffffffffffffffffff1673ffffffffffffffffffffffffffffffffffffffff16815260200190815260200160002060008573ffffffffffffffffffffffffffffffffffffffff1673ffffffffffffffffffffffffffffffffffffffff16815260200190815260200160002060008282546104389190610e87565b92505081905550818161044b9190610ebb565b600860003373ffffffffffffffffffffffffffffffffffffffff1673ffffffffffffffffffffffffffffffffffffffff16815260200190815260200160002060008573ffffffffffffffffffffffffffffffffffffffff1673ffffffffffffffffffffffffffffffffffffffff16815260200190815260200160002060008282546104d69190610e87565b92505081905550505050565b600081600a6104f19190611048565b600660008573ffffffffffffffffffffffffffffffffffffffff1673ffffffffffffffffffffffffffffffffffffffff16815260200190815260200160002060008673ffffffffffffffffffffffffffffffffffffffff1673ffffffffffffffffffffffffffffffffffffffff1681526020019081526020016000205461057891906110c2565b90509392505050565b6000600660008373ffffffffffffffffffffffffffffffffffffffff1673ffffffffffffffffffffffffffffffffffffffff16815260200190815260200160002060008473ffffffffffffffffffffffffffffffffffffffff1673ffffffffffffffffffffffffffffffffffffffff16815260200190815260200160002054905092915050565b8273ffffffffffffffffffffffffffffffffffffffff166323b872dd3330856040518463ffffffff167c010000000000000000000000000000000000000000000000000000000002815260040161066193929190610dbc565b6020604051808303816000875af1158015610680573d6000803e3d6000fd5b505050506040513d601f19601f820116820180604052508101906106a49190610e2b565b5081600660003373ffffffffffffffffffffffffffffffffffffffff1673ffffffffffffffffffffffffffffffffffffffff16815260200190815260200160002060008573ffffffffffffffffffffffffffffffffffffffff1673ffffffffffffffffffffffffffffffffffffffff168152602001908152602001600020600082825461073191906110f3565b9250508190555081816107449190610ebb565b600860003373ffffffffffffffffffffffffffffffffffffffff1673ffffffffffffffffffffffffffffffffffffffff16815260200190815260200160002060008573ffffffffffffffffffffffffffffffffffffffff1673ffffffffffffffffffffffffffffffffffffffff16815260200190815260200160002060008282546107cf91906110f3565b9250508190555042600760003373ffffffffffffffffffffffffffffffffffffffff1673ffffffffffffffffffffffffffffffffffffffff16815260200190815260200160002081905550505050565b6008602052816000526040600020602052806000526040600020600091509150505481565b62015180600760003373ffffffffffffffffffffffffffffffffffffffff1673ffffffffffffffffffffffffffffffffffffffff1681526020019081526020016000205461089291906110f3565b42101561089e57600080fd5b601842600760003373ffffffffffffffffffffffffffffffffffffffff1673ffffffffffffffffffffffffffffffffffffffff168152602001908152602001600020546108eb9190610e87565b6108f591906110c2565b600d546109029190610ebb565b600860003373ffffffffffffffffffffffffffffffffffffffff1673ffffffffffffffffffffffffffffffffffffffff16815260200190815260200160002060008373ffffffffffffffffffffffffffffffffffffffff1673ffffffffffffffffffffffffffffffffffffffff168152602001908152602001600020546109899190610ebb565b600960003373ffffffffffffffffffffffffffffffffffffffff1673ffffffffffffffffffffffffffffffffffffffff16815260200190815260200160002081905550600c60009054906101000a900473ffffffffffffffffffffffffffffffffffffffff1673ffffffffffffffffffffffffffffffffffffffff16637b56c2b233600960003373ffffffffffffffffffffffffffffffffffffffff1673ffffffffffffffffffffffffffffffffffffffff168152602001908152602001600020546040518363ffffffff167c0100000000000000000000000000000000000000000000000000000000028152600401610a84929190611149565b600060405180830381600087803b158015610a9e57600080fd5b505af1158015610ab2573d6000803e3d6000fd5b5050505050565b6000600860003373ffffffffffffffffffffffffffffffffffffffff1673ffffffffffffffffffffffffffffffffffffffff16815260200190815260200160002060008373ffffffffffffffffffffffffffffffffffffffff1673ffffffffffffffffffffffffffffffffffffffff168152602001908152602001600020549050919050565b600080fd5b600073ffffffffffffffffffffffffffffffffffffffff82169050919050565b6000610b6f82610b44565b9050919050565b610b7f81610b64565b8114610b8a57600080fd5b50565b600081359050610b9c81610b76565b92915050565b600060208284031215610bb857610bb7610b3f565b5b6000610bc684828501610b8d565b91505092915050565b610bd881610b64565b82525050565b6000602082019050610bf36000830184610bcf565b92915050565b6000819050919050565b610c0c81610bf9565b82525050565b6000602082019050610c276000830184610c03565b92915050565b610c3681610bf9565b8114610c4157600080fd5b50565b600081359050610c5381610c2d565b92915050565b600080600060608486031215610c7257610c71610b3f565b5b6000610c8086828701610b8d565b9350506020610c9186828701610c44565b9250506040610ca286828701610c44565b9150509250925092565b600080600060608486031215610cc557610cc4610b3f565b5b6000610cd386828701610b8d565b9350506020610ce486828701610b8d565b9250506040610cf586828701610c44565b9150509250925092565b60008060408385031215610d1657610d15610b3f565b5b6000610d2485828601610b8d565b9250506020610d3585828601610b8d565b9150509250929050565b600082825260208201905092915050565b7f4e6f7420656e6f7567687420746f6b656e000000000000000000000000000000600082015250565b6000610d86601183610d3f565b9150610d9182610d50565b602082019050919050565b60006020820190508181036000830152610db581610d79565b9050919050565b6000606082019050610dd16000830186610bcf565b610dde6020830185610bcf565b610deb6040830184610c03565b949350505050565b60008115159050919050565b610e0881610df3565b8114610e1357600080fd5b50565b600081519050610e2581610dff565b92915050565b600060208284031215610e4157610e40610b3f565b5b6000610e4f84828501610e16565b91505092915050565b7f4e487b7100000000000000000000000000000000000000000000000000000000600052601160045260246000fd5b6000610e9282610bf9565b9150610e9d83610bf9565b925082821015610eb057610eaf610e58565b5b828203905092915050565b6000610ec682610bf9565b9150610ed183610bf9565b9250817fffffffffffffffffffffffffffffffffffffffffffffffffffffffffffffffff0483118215151615610f0a57610f09610e58565b5b828202905092915050565b6000600282049050919050565b6000808291508390505b6001851115610f6c57808604811115610f4857610f47610e58565b5b6001851615610f575780820291505b8081029050610f6585610f15565b9450610f2c565b94509492505050565b600082610f855760019050611041565b81610f935760009050611041565b8160018114610fa95760028114610fb357610fe2565b6001915050611041565b60ff841115610fc557610fc4610e58565b5b8360020a915084821115610fdc57610fdb610e58565b5b50611041565b5060208310610133831016604e8410600b84101617156110175782820a90508381111561101257611011610e58565b5b611041565b6110248484846001610f22565b9250905081840481111561103b5761103a610e58565b5b81810290505b9392505050565b600061105382610bf9565b915061105e83610bf9565b925061108b7fffffffffffffffffffffffffffffffffffffffffffffffffffffffffffffffff8484610f75565b905092915050565b7f4e487b7100000000000000000000000000000000000000000000000000000000600052601260045260246000fd5b60006110cd82610bf9565b91506110d883610bf9565b9250826110e8576110e7611093565b5b828204905092915050565b60006110fe82610bf9565b915061110983610bf9565b9250827fffffffffffffffffffffffffffffffffffffffffffffffffffffffffffffffff0382111561113e5761113d610e58565b5b828201905092915050565b600060408201905061115e6000830185610bcf565b61116b6020830184610c03565b939250505056fea26469706673582212205fb237a9be2f8122393abc9471e31ef725e4ad8b25fdb24cd5eb06637ab59bf964736f6c634300080c0033",
  "immutableReferences": {},
  "source": "pragma solidity 0.8.12;\r\n\r\nimport \"./Rec.sol\";\r\nimport \"@openzeppelin/contracts/token/ERC20/IERC20.sol\";\r\nimport \"@chainlink/contracts/src/v0.8/interfaces/AggregatorV3Interface.sol\";\r\nimport \"@chainlink/contracts/src/v0.8/ChainlinkClient.sol\";\r\nimport \"@chainlink/contracts/src/v0.8/interfaces/FeedRegistryInterface.sol\";\r\n\r\ncontract Ower is ChainlinkClient {\r\n    mapping(address => mapping(address => uint256)) private balance;\r\n    mapping(address => uint256) private depositTime;\r\n    mapping(address => mapping(address => uint256)) public depositValue;\r\n    mapping(address => uint256) private reward;\r\n    mapping(address => address) public tokenPriceFeedMapping;\r\n\r\n    FeedRegistryInterface internal registry;\r\n    Rec rec;\r\n    uint256 public rate = 1;\r\n\r\n    function depositToken(\r\n        address _token,\r\n        uint256 _amount,\r\n        uint256 value\r\n    ) public {\r\n        IERC20(_token).transferFrom(msg.sender, address(this), _amount);\r\n        balance[msg.sender][_token] += _amount;\r\n        depositValue[msg.sender][_token] += value * _amount;\r\n        depositTime[msg.sender] = block.timestamp;\r\n    }\r\n\r\n    function widthdrawToken(\r\n        address _token,\r\n        uint256 _amount,\r\n        uint256 value\r\n    ) public {\r\n        require(balance[msg.sender][_token] >= _amount, \"Not enought token\");\r\n        IERC20(_token).transferFrom(address(this), msg.sender, _amount);\r\n        balance[msg.sender][_token] -= _amount;\r\n        depositValue[msg.sender][_token] -= value * _amount;\r\n    }\r\n\r\n    function redeemReward(address _token) public {\r\n        require(block.timestamp >= depositTime[msg.sender] + 24 hours);\r\n        reward[msg.sender] = (depositValue[msg.sender][_token] *\r\n            (rate * ((depositTime[msg.sender] - block.timestamp) / 24)));\r\n        rec.faucet(msg.sender, reward[msg.sender]);\r\n    }\r\n\r\n    function getReward(address _token) public returns (uint256) {\r\n        return depositValue[msg.sender][_token];\r\n    }\r\n\r\n    function getBalance(\r\n        address _token,\r\n        address _user,\r\n        uint256 decimals\r\n    ) public view returns (uint256) {\r\n        return balance[_user][_token] / 10**decimals;\r\n    }\r\n\r\n    function addressBalance(address _token, address _user)\r\n        public\r\n        view\r\n        returns (uint256)\r\n    {\r\n        return balance[_user][_token];\r\n    }\r\n}\r\n",
  "sourcePath": "E:\\Programation\\Alyra\\Defi-4\\contracts\\Ower.sol",
  "compiler": {
    "name": "solc",
    "version": "0.8.12+commit.f00d7308.Emscripten.clang"
  },
  "schemaVersion": "3.4.3",
  "updatedAt": "2022-03-22T13:40:08.686Z",
  "networkType": "ethereum",
  "devdoc": {
    "kind": "dev",
    "methods": {},
    "version": 1
  },
  "userdoc": {
    "kind": "user",
    "methods": {},
    "version": 1
  }
}