{
  "contractName": "Ower",
  "abi": [
    {
      "inputs": [],
      "name": "balance",
      "outputs": [
        {
          "internalType": "uint256",
          "name": "",
          "type": "uint256"
        }
      ],
      "stateMutability": "view",
      "type": "function",
      "constant": true
    },
    {
      "inputs": [],
      "name": "token",
      "outputs": [
        {
          "internalType": "contract IERC20",
          "name": "",
          "type": "address"
        }
      ],
      "stateMutability": "view",
      "type": "function",
      "constant": true
    },
    {
      "inputs": [
        {
          "internalType": "address",
          "name": "_token",
          "type": "address"
        },
        {
          "internalType": "uint256",
          "name": "_amount",
          "type": "uint256"
        }
      ],
      "name": "transfer",
      "outputs": [],
      "stateMutability": "nonpayable",
      "type": "function"
    },
    {
      "inputs": [
        {
          "internalType": "address",
          "name": "_token",
          "type": "address"
        },
        {
          "internalType": "uint256",
          "name": "_amount",
          "type": "uint256"
        }
      ],
      "name": "approuve",
      "outputs": [],
      "stateMutability": "nonpayable",
      "type": "function"
    },
    {
      "inputs": [
        {
          "internalType": "uint256",
          "name": "_amount",
          "type": "uint256"
        },
        {
          "internalType": "address",
          "name": "_token",
          "type": "address"
        }
      ],
      "name": "transferFrom",
      "outputs": [],
      "stateMutability": "nonpayable",
      "type": "function"
    },
    {
      "inputs": [
        {
          "internalType": "address",
          "name": "_tokenAddress",
          "type": "address"
        }
      ],
      "name": "setTokenAddress",
      "outputs": [],
      "stateMutability": "nonpayable",
      "type": "function"
    },
    {
      "inputs": [
        {
          "internalType": "address",
          "name": "_token",
          "type": "address"
        }
      ],
      "name": "balanceOf",
      "outputs": [],
      "stateMutability": "nonpayable",
      "type": "function"
    }
  ],
  "bytecode": "0x608060405234801561001057600080fd5b506108f1806100206000396000f3fe608060405234801561001057600080fd5b506004361061009a576000357c010000000000000000000000000000000000000000000000000000000090048063a9059cbb11610078578063a9059cbb146100f3578063aed4839a1461010f578063b69ef8a81461012b578063fc0c546a146101495761009a565b80631824e0881461009f57806326a4e8d2146100bb57806370a08231146100d7575b600080fd5b6100b960048036038101906100b491906105bc565b610167565b005b6100d560048036038101906100d091906105fc565b610206565b005b6100f160048036038101906100ec91906105fc565b6102ad565b005b61010d600480360381019061010891906105bc565b61034f565b005b61012960048036038101906101249190610629565b610456565b005b6101336104f7565b6040516101409190610678565b60405180910390f35b6101516104fd565b60405161015e91906106f2565b60405180910390f35b8173ffffffffffffffffffffffffffffffffffffffff1663095ea7b333836040518363ffffffff167c01000000000000000000000000000000000000000000000000000000000281526004016101be92919061071c565b6020604051808303816000875af11580156101dd573d6000803e3d6000fd5b505050506040513d601f19601f82011682018060405250810190610201919061077d565b505050565b80600260006101000a81548173ffffffffffffffffffffffffffffffffffffffff021916908373ffffffffffffffffffffffffffffffffffffffff160217905550600260009054906101000a900473ffffffffffffffffffffffffffffffffffffffff16600160006101000a81548173ffffffffffffffffffffffffffffffffffffffff021916908373ffffffffffffffffffffffffffffffffffffffff16021790555050565b60008173ffffffffffffffffffffffffffffffffffffffff166370a08231336040518263ffffffff167c010000000000000000000000000000000000000000000000000000000002815260040161030491906107aa565b602060405180830381865afa158015610321573d6000803e3d6000fd5b505050506040513d601f19601f8201168201806040525081019061034591906107da565b6000819055505050565b600160009054906101000a900473ffffffffffffffffffffffffffffffffffffffff1673ffffffffffffffffffffffffffffffffffffffff166323b872dd3330846040518463ffffffff167c01000000000000000000000000000000000000000000000000000000000281526004016103ca93929190610807565b6020604051808303816000875af11580156103e9573d6000803e3d6000fd5b505050506040513d601f19601f8201168201806040525081019061040d919061077d565b1561041757610452565b6040517f08c379a00000000000000000000000000000000000000000000000000000000081526004016104499061089b565b60405180910390fd5b5050565b8073ffffffffffffffffffffffffffffffffffffffff166323b872dd3330856040518463ffffffff167c01000000000000000000000000000000000000000000000000000000000281526004016104af93929190610807565b6020604051808303816000875af11580156104ce573d6000803e3d6000fd5b505050506040513d601f19601f820116820180604052508101906104f2919061077d565b505050565b60005481565b600360009054906101000a900473ffffffffffffffffffffffffffffffffffffffff1681565b600080fd5b600073ffffffffffffffffffffffffffffffffffffffff82169050919050565b600061055382610528565b9050919050565b61056381610548565b811461056e57600080fd5b50565b6000813590506105808161055a565b92915050565b6000819050919050565b61059981610586565b81146105a457600080fd5b50565b6000813590506105b681610590565b92915050565b600080604083850312156105d3576105d2610523565b5b60006105e185828601610571565b92505060206105f2858286016105a7565b9150509250929050565b60006020828403121561061257610611610523565b5b600061062084828501610571565b91505092915050565b600080604083850312156106405761063f610523565b5b600061064e858286016105a7565b925050602061065f85828601610571565b9150509250929050565b61067281610586565b82525050565b600060208201905061068d6000830184610669565b92915050565b6000819050919050565b60006106b86106b36106ae84610528565b610693565b610528565b9050919050565b60006106ca8261069d565b9050919050565b60006106dc826106bf565b9050919050565b6106ec816106d1565b82525050565b600060208201905061070760008301846106e3565b92915050565b61071681610548565b82525050565b6000604082019050610731600083018561070d565b61073e6020830184610669565b9392505050565b60008115159050919050565b61075a81610745565b811461076557600080fd5b50565b60008151905061077781610751565b92915050565b60006020828403121561079357610792610523565b5b60006107a184828501610768565b91505092915050565b60006020820190506107bf600083018461070d565b92915050565b6000815190506107d481610590565b92915050565b6000602082840312156107f0576107ef610523565b5b60006107fe848285016107c5565b91505092915050565b600060608201905061081c600083018661070d565b610829602083018561070d565b6108366040830184610669565b949350505050565b600082825260208201905092915050565b7f556e61626c6520746f207472616e736665722066756e64730000000000000000600082015250565b600061088560188361083e565b91506108908261084f565b602082019050919050565b600060208201905081810360008301526108b481610878565b905091905056fea2646970667358221220b03767aa85e4655558236f4a7cf4c4cdaf80a5820cd5122a91d890cdb3498c0664736f6c634300080c0033",
  "immutableReferences": {},
  "source": "import \"@openzeppelin/contracts/token/ERC20/IERC20.sol\";\r\nimport \"@openzeppelin/contracts/token/ERC20/ERC20.sol\";\r\nimport \"./StakingCore.sol\";\r\n\r\ncontract Ower {\r\n    uint256 public balance;\r\n    ERC20 private ERC20Interface;\r\n    address private tokenAddress;\r\n    IERC20 public token;\r\n\r\n    function transfer(address _token, uint256 _amount) external {\r\n        // IERC20(_token).approve(address(this), _amount);\r\n\r\n        if (\r\n            ERC20Interface.transferFrom(msg.sender, address(this), _amount)\r\n        ) {} else {\r\n            revert(\"Unable to transfer funds\");\r\n        }\r\n        // StakingCore stakingCore;\r\n        // stakingCore.stakeERC20(_token, msg.sender, address(this), _amount);\r\n    }\r\n\r\n    function approuve(address _token, uint256 _amount) public {\r\n        IERC20(_token).approve(msg.sender, _amount);\r\n    }\r\n\r\n    function transferFrom(uint256 _amount, address _token) public {\r\n        IERC20(_token).transferFrom(msg.sender, address(this), _amount);\r\n    }\r\n\r\n    function setTokenAddress(address _tokenAddress) external {\r\n        tokenAddress = _tokenAddress;\r\n        ERC20Interface = ERC20(tokenAddress);\r\n    }\r\n\r\n    function balanceOf(address _token) external {\r\n        StakingCore stakingCore;\r\n        balance = IERC20(_token).balanceOf(msg.sender);\r\n        // stakingCore.getBalance(_token, msg.sender);\r\n    }\r\n}\r\n",
  "sourcePath": "E:\\Programation\\Alyra\\Defi-4\\contracts\\Ower.sol",
  "compiler": {
    "name": "solc",
    "version": "0.8.12+commit.f00d7308.Emscripten.clang"
  },
  "schemaVersion": "3.4.3",
  "updatedAt": "2022-03-18T00:22:45.297Z",
  "networkType": "ethereum",
  "devdoc": {
    "kind": "dev",
    "methods": {},
    "version": 1
  },
  "userdoc": {
    "kind": "user",
    "methods": {},
    "version": 1
  }
}