{
  "contractName": "StackingCore",
  "abi": [
    {
      "inputs": [
        {
          "internalType": "address",
          "name": "_registry",
          "type": "address"
        }
      ],
      "stateMutability": "nonpayable",
      "type": "constructor"
    },
    {
      "anonymous": false,
      "inputs": [
        {
          "indexed": true,
          "internalType": "bytes32",
          "name": "id",
          "type": "bytes32"
        }
      ],
      "name": "ChainlinkCancelled",
      "type": "event"
    },
    {
      "anonymous": false,
      "inputs": [
        {
          "indexed": true,
          "internalType": "bytes32",
          "name": "id",
          "type": "bytes32"
        }
      ],
      "name": "ChainlinkFulfilled",
      "type": "event"
    },
    {
      "anonymous": false,
      "inputs": [
        {
          "indexed": true,
          "internalType": "bytes32",
          "name": "id",
          "type": "bytes32"
        }
      ],
      "name": "ChainlinkRequested",
      "type": "event"
    },
    {
      "inputs": [],
      "name": "rate",
      "outputs": [
        {
          "internalType": "uint256",
          "name": "",
          "type": "uint256"
        }
      ],
      "stateMutability": "view",
      "type": "function"
    },
    {
      "inputs": [
        {
          "internalType": "address",
          "name": "",
          "type": "address"
        },
        {
          "internalType": "address",
          "name": "",
          "type": "address"
        }
      ],
      "name": "stacker",
      "outputs": [
        {
          "internalType": "uint256",
          "name": "balance",
          "type": "uint256"
        },
        {
          "internalType": "uint256",
          "name": "FirstDepositTime",
          "type": "uint256"
        },
        {
          "internalType": "uint256",
          "name": "reward",
          "type": "uint256"
        },
        {
          "internalType": "uint256",
          "name": "decimals",
          "type": "uint256"
        }
      ],
      "stateMutability": "view",
      "type": "function"
    },
    {
      "inputs": [
        {
          "internalType": "address",
          "name": "",
          "type": "address"
        }
      ],
      "name": "tokenPriceFeedMapping",
      "outputs": [
        {
          "internalType": "address",
          "name": "",
          "type": "address"
        }
      ],
      "stateMutability": "view",
      "type": "function"
    },
    {
      "inputs": [
        {
          "internalType": "address",
          "name": "_token",
          "type": "address"
        },
        {
          "internalType": "uint256",
          "name": "_amount",
          "type": "uint256"
        },
        {
          "internalType": "uint256",
          "name": "_decimals",
          "type": "uint256"
        }
      ],
      "name": "depositToken",
      "outputs": [],
      "stateMutability": "nonpayable",
      "type": "function"
    },
    {
      "inputs": [
        {
          "internalType": "address",
          "name": "_token",
          "type": "address"
        },
        {
          "internalType": "uint256",
          "name": "_amount",
          "type": "uint256"
        }
      ],
      "name": "withdrawToken",
      "outputs": [],
      "stateMutability": "nonpayable",
      "type": "function"
    },
    {
      "inputs": [
        {
          "internalType": "address",
          "name": "_token",
          "type": "address"
        },
        {
          "internalType": "address",
          "name": "_user",
          "type": "address"
        }
      ],
      "name": "getRewardValue",
      "outputs": [
        {
          "internalType": "uint256",
          "name": "",
          "type": "uint256"
        }
      ],
      "stateMutability": "view",
      "type": "function"
    },
    {
      "inputs": [
        {
          "internalType": "address",
          "name": "_token",
          "type": "address"
        },
        {
          "internalType": "address",
          "name": "_user",
          "type": "address"
        }
      ],
      "name": "getBalance",
      "outputs": [
        {
          "internalType": "uint256",
          "name": "",
          "type": "uint256"
        }
      ],
      "stateMutability": "view",
      "type": "function"
    },
    {
      "inputs": [
        {
          "internalType": "address",
          "name": "base",
          "type": "address"
        },
        {
          "internalType": "address",
          "name": "quote",
          "type": "address"
        }
      ],
      "name": "getPrice",
      "outputs": [
        {
          "internalType": "int256",
          "name": "",
          "type": "int256"
        }
      ],
      "stateMutability": "view",
      "type": "function"
    }
  ],
  "bytecode": "0x60806040526001600455600a8055610348600b60006101000a81548173ffffffffffffffffffffffffffffffffffffffff021916908373ffffffffffffffffffffffffffffffffffffffff16021790555034801561005c57600080fd5b50604051610f9c380380610f9c833981810160405281019061007e9190610128565b80600860006101000a81548173ffffffffffffffffffffffffffffffffffffffff021916908373ffffffffffffffffffffffffffffffffffffffff16021790555050610155565b600080fd5b600073ffffffffffffffffffffffffffffffffffffffff82169050919050565b60006100f5826100ca565b9050919050565b610105816100ea565b811461011057600080fd5b50565b600081519050610122816100fc565b92915050565b60006020828403121561013e5761013d6100c5565b5b600061014c84828501610113565b91505092915050565b610e38806101646000396000f3fe608060405234801561001057600080fd5b50600436106100a5576000357c01000000000000000000000000000000000000000000000000000000009004806399c6d2de1161007857806399c6d2de1461015b5780639e281a9814610177578063ac41865a14610193578063d4fac45d146101c3576100a5565b80630f1e5053146100aa5780632478d3c0146100da57806327927b3e1461010d5780632c4e722e1461013d575b600080fd5b6100c460048036038101906100bf9190610890565b6101f3565b6040516100d191906108e9565b60405180910390f35b6100f460048036038101906100ef9190610890565b61023d565b6040516101049493929190610904565b60405180910390f35b61012760048036038101906101229190610949565b61027a565b6040516101349190610985565b60405180910390f35b6101456102ad565b60405161015291906108e9565b60405180910390f35b610175600480360381019061017091906109cc565b6102b3565b005b610191600480360381019061018c9190610a1f565b6104f3565b005b6101ad60048036038101906101a89190610890565b6106b6565b6040516101ba9190610a78565b60405180910390f35b6101dd60048036038101906101d89190610890565b6107a3565b6040516101ea91906108e9565b60405180910390f35b600061022183600b60009054906101000a900473ffffffffffffffffffffffffffffffffffffffff166106b6565b61022b84846107a3565b6102359190610ac2565b905092915050565b6007602052816000526040600020602052806000526040600020600091509150508060000154908060010154908060020154908060030154905084565b60066020528060005260406000206000915054906101000a900473ffffffffffffffffffffffffffffffffffffffff1681565b600a5481565b8273ffffffffffffffffffffffffffffffffffffffff166323b872dd3330856040518463ffffffff167c010000000000000000000000000000000000000000000000000000000002815260040161030c93929190610b1c565b6020604051808303816000875af115801561032b573d6000803e3d6000fd5b505050506040513d601f19601f8201168201806040525081019061034f9190610b8b565b5081600760003373ffffffffffffffffffffffffffffffffffffffff1673ffffffffffffffffffffffffffffffffffffffff16815260200190815260200160002060008573ffffffffffffffffffffffffffffffffffffffff1673ffffffffffffffffffffffffffffffffffffffff16815260200190815260200160002060000160008282546103df9190610bb8565b9250508190555080600760003373ffffffffffffffffffffffffffffffffffffffff1673ffffffffffffffffffffffffffffffffffffffff16815260200190815260200160002060008573ffffffffffffffffffffffffffffffffffffffff1673ffffffffffffffffffffffffffffffffffffffff1681526020019081526020016000206003018190555042600760003373ffffffffffffffffffffffffffffffffffffffff1673ffffffffffffffffffffffffffffffffffffffff16815260200190815260200160002060008573ffffffffffffffffffffffffffffffffffffffff1673ffffffffffffffffffffffffffffffffffffffff16815260200190815260200160002060010181905550505050565b80600760003373ffffffffffffffffffffffffffffffffffffffff1673ffffffffffffffffffffffffffffffffffffffff16815260200190815260200160002060008473ffffffffffffffffffffffffffffffffffffffff1673ffffffffffffffffffffffffffffffffffffffff16815260200190815260200160002060000154101561057f57600080fd5b8173ffffffffffffffffffffffffffffffffffffffff166323b872dd3330846040518463ffffffff167c01000000000000000000000000000000000000000000000000000000000281526004016105d893929190610b1c565b6020604051808303816000875af11580156105f7573d6000803e3d6000fd5b505050506040513d601f19601f8201168201806040525081019061061b9190610b8b565b5080600760003373ffffffffffffffffffffffffffffffffffffffff1673ffffffffffffffffffffffffffffffffffffffff16815260200190815260200160002060008473ffffffffffffffffffffffffffffffffffffffff1673ffffffffffffffffffffffffffffffffffffffff16815260200190815260200160002060000160008282546106ab9190610c0e565b925050819055505050565b6000806000806000806000600860009054906101000a900473ffffffffffffffffffffffffffffffffffffffff1673ffffffffffffffffffffffffffffffffffffffff1663bcfd032d8a8a6040518363ffffffff167c010000000000000000000000000000000000000000000000000000000002815260040161073a929190610c42565b60a060405180830381865afa158015610757573d6000803e3d6000fd5b505050506040513d601f19601f8201168201806040525081019061077b9190610cee565b945094509450945094506305f5e100846107959190610d98565b965050505050505092915050565b6000600760008373ffffffffffffffffffffffffffffffffffffffff1673ffffffffffffffffffffffffffffffffffffffff16815260200190815260200160002060008473ffffffffffffffffffffffffffffffffffffffff1673ffffffffffffffffffffffffffffffffffffffff16815260200190815260200160002060000154905092915050565b600080fd5b600073ffffffffffffffffffffffffffffffffffffffff82169050919050565b600061085d82610832565b9050919050565b61086d81610852565b811461087857600080fd5b50565b60008135905061088a81610864565b92915050565b600080604083850312156108a7576108a661082d565b5b60006108b58582860161087b565b92505060206108c68582860161087b565b9150509250929050565b6000819050919050565b6108e3816108d0565b82525050565b60006020820190506108fe60008301846108da565b92915050565b600060808201905061091960008301876108da565b61092660208301866108da565b61093360408301856108da565b61094060608301846108da565b95945050505050565b60006020828403121561095f5761095e61082d565b5b600061096d8482850161087b565b91505092915050565b61097f81610852565b82525050565b600060208201905061099a6000830184610976565b92915050565b6109a9816108d0565b81146109b457600080fd5b50565b6000813590506109c6816109a0565b92915050565b6000806000606084860312156109e5576109e461082d565b5b60006109f38682870161087b565b9350506020610a04868287016109b7565b9250506040610a15868287016109b7565b9150509250925092565b60008060408385031215610a3657610a3561082d565b5b6000610a448582860161087b565b9250506020610a55858286016109b7565b9150509250929050565b6000819050919050565b610a7281610a5f565b82525050565b6000602082019050610a8d6000830184610a69565b92915050565b7f4e487b7100000000000000000000000000000000000000000000000000000000600052601160045260246000fd5b6000610acd826108d0565b9150610ad8836108d0565b9250817fffffffffffffffffffffffffffffffffffffffffffffffffffffffffffffffff0483118215151615610b1157610b10610a93565b5b828202905092915050565b6000606082019050610b316000830186610976565b610b3e6020830185610976565b610b4b60408301846108da565b949350505050565b60008115159050919050565b610b6881610b53565b8114610b7357600080fd5b50565b600081519050610b8581610b5f565b92915050565b600060208284031215610ba157610ba061082d565b5b6000610baf84828501610b76565b91505092915050565b6000610bc3826108d0565b9150610bce836108d0565b9250827fffffffffffffffffffffffffffffffffffffffffffffffffffffffffffffffff03821115610c0357610c02610a93565b5b828201905092915050565b6000610c19826108d0565b9150610c24836108d0565b925082821015610c3757610c36610a93565b5b828203905092915050565b6000604082019050610c576000830185610976565b610c646020830184610976565b9392505050565b600069ffffffffffffffffffff82169050919050565b610c8a81610c6b565b8114610c9557600080fd5b50565b600081519050610ca781610c81565b92915050565b610cb681610a5f565b8114610cc157600080fd5b50565b600081519050610cd381610cad565b92915050565b600081519050610ce8816109a0565b92915050565b600080600080600060a08688031215610d0a57610d0961082d565b5b6000610d1888828901610c98565b9550506020610d2988828901610cc4565b9450506040610d3a88828901610cd9565b9350506060610d4b88828901610cd9565b9250506080610d5c88828901610c98565b9150509295509295909350565b7f4e487b7100000000000000000000000000000000000000000000000000000000600052601260045260246000fd5b6000610da382610a5f565b9150610dae83610a5f565b925082610dbe57610dbd610d69565b5b600160000383147f800000000000000000000000000000000000000000000000000000000000000083141615610df757610df6610a93565b5b82820590509291505056fea26469706673582212200b2c98a0cca0a738793719df03dbd0c889b4269f2b430acb1df3308d2ca0c38564736f6c634300080c0033",
  "immutableReferences": {},
  "source": "pragma solidity 0.8.12;\r\n\r\nimport \"./Rec.sol\";\r\nimport \"@openzeppelin/contracts/token/ERC20/IERC20.sol\";\r\nimport \"@chainlink/contracts/src/v0.8/interfaces/AggregatorV3Interface.sol\";\r\nimport \"@chainlink/contracts/src/v0.8/ChainlinkClient.sol\";\r\nimport \"@chainlink/contracts/src/v0.8/interfaces/FeedRegistryInterface.sol\";\r\n\r\ncontract StackingCore is ChainlinkClient {\r\n    struct Stacker {\r\n        uint256 balance;\r\n        uint256 FirstDepositTime;\r\n        uint256 reward;\r\n        uint256 decimals;\r\n    }\r\n\r\n    mapping(address => address) public tokenPriceFeedMapping;\r\n    mapping(address => mapping(address => Stacker)) public stacker;\r\n\r\n    FeedRegistryInterface internal registry;\r\n    Rec rec;\r\n    uint256 public rate = 10;\r\n    address USD = 0x0000000000000000000000000000000000000348;\r\n\r\n    constructor(address _registry) {\r\n        registry = FeedRegistryInterface(_registry);\r\n    }\r\n\r\n    function depositToken(\r\n        address _token,\r\n        uint256 _amount,\r\n        uint256 _decimals\r\n    ) public {\r\n        IERC20(_token).transferFrom(msg.sender, address(this), _amount);\r\n        stacker[msg.sender][_token].balance += _amount;\r\n        stacker[msg.sender][_token].decimals = _decimals;\r\n        stacker[msg.sender][_token].FirstDepositTime = block.timestamp;\r\n    }\r\n\r\n    function withdrawToken(address _token, uint256 _amount) public {\r\n        require(stacker[msg.sender][_token].balance >= _amount);\r\n        IERC20(_token).transferFrom(msg.sender, address(this), _amount);\r\n        stacker[msg.sender][_token].balance -= _amount;\r\n    }\r\n\r\n    function getRewardValue(address _token, address _user)\r\n        public\r\n        view\r\n        returns (uint256)\r\n    {\r\n        return (getBalance(_token, _user) * uint256(getPrice(_token, USD)));\r\n    }\r\n\r\n    function getBalance(address _token, address _user)\r\n        public\r\n        view\r\n        returns (uint256)\r\n    {\r\n        return stacker[_user][_token].balance;\r\n    }\r\n\r\n    function getPrice(address base, address quote)\r\n        public\r\n        view\r\n        returns (int256)\r\n    {\r\n        int8 decimals;\r\n        (\r\n            uint80 roundID,\r\n            int256 price,\r\n            uint256 startedAt,\r\n            uint256 timeStamp,\r\n            uint80 answeredInRound\r\n        ) = registry.latestRoundData(base, quote);\r\n        return price / 10**8;\r\n    }\r\n}\r\n",
  "sourcePath": "E:\\Programation\\Alyra\\Defi-4\\contracts\\StackingCore.sol",
  "compiler": {
    "name": "solc",
    "version": "0.8.12+commit.f00d7308.Emscripten.clang"
  },
  "schemaVersion": "3.4.3",
  "updatedAt": "2022-03-24T22:05:17.530Z",
  "devdoc": {
    "kind": "dev",
    "methods": {},
    "version": 1
  },
  "userdoc": {
    "kind": "user",
    "methods": {},
    "version": 1
  }
}