{
  "contractName": "StackingCore",
  "abi": [
    {
      "inputs": [
        {
          "internalType": "address",
          "name": "_registry",
          "type": "address"
        }
      ],
      "stateMutability": "nonpayable",
      "type": "constructor"
    },
    {
      "anonymous": false,
      "inputs": [
        {
          "indexed": true,
          "internalType": "address",
          "name": "owner",
          "type": "address"
        },
        {
          "indexed": true,
          "internalType": "address",
          "name": "spender",
          "type": "address"
        },
        {
          "indexed": false,
          "internalType": "uint256",
          "name": "value",
          "type": "uint256"
        }
      ],
      "name": "Approval",
      "type": "event"
    },
    {
      "anonymous": false,
      "inputs": [
        {
          "indexed": true,
          "internalType": "bytes32",
          "name": "id",
          "type": "bytes32"
        }
      ],
      "name": "ChainlinkCancelled",
      "type": "event"
    },
    {
      "anonymous": false,
      "inputs": [
        {
          "indexed": true,
          "internalType": "bytes32",
          "name": "id",
          "type": "bytes32"
        }
      ],
      "name": "ChainlinkFulfilled",
      "type": "event"
    },
    {
      "anonymous": false,
      "inputs": [
        {
          "indexed": true,
          "internalType": "bytes32",
          "name": "id",
          "type": "bytes32"
        }
      ],
      "name": "ChainlinkRequested",
      "type": "event"
    },
    {
      "anonymous": false,
      "inputs": [
        {
          "indexed": true,
          "internalType": "address",
          "name": "from",
          "type": "address"
        },
        {
          "indexed": true,
          "internalType": "address",
          "name": "to",
          "type": "address"
        },
        {
          "indexed": false,
          "internalType": "uint256",
          "name": "value",
          "type": "uint256"
        }
      ],
      "name": "Transfer",
      "type": "event"
    },
    {
      "inputs": [
        {
          "internalType": "address",
          "name": "owner",
          "type": "address"
        },
        {
          "internalType": "address",
          "name": "spender",
          "type": "address"
        }
      ],
      "name": "allowance",
      "outputs": [
        {
          "internalType": "uint256",
          "name": "",
          "type": "uint256"
        }
      ],
      "stateMutability": "view",
      "type": "function",
      "constant": true
    },
    {
      "inputs": [
        {
          "internalType": "address",
          "name": "spender",
          "type": "address"
        },
        {
          "internalType": "uint256",
          "name": "amount",
          "type": "uint256"
        }
      ],
      "name": "approve",
      "outputs": [
        {
          "internalType": "bool",
          "name": "",
          "type": "bool"
        }
      ],
      "stateMutability": "nonpayable",
      "type": "function"
    },
    {
      "inputs": [
        {
          "internalType": "address",
          "name": "account",
          "type": "address"
        }
      ],
      "name": "balanceOf",
      "outputs": [
        {
          "internalType": "uint256",
          "name": "",
          "type": "uint256"
        }
      ],
      "stateMutability": "view",
      "type": "function",
      "constant": true
    },
    {
      "inputs": [],
      "name": "decimals",
      "outputs": [
        {
          "internalType": "uint8",
          "name": "",
          "type": "uint8"
        }
      ],
      "stateMutability": "view",
      "type": "function",
      "constant": true
    },
    {
      "inputs": [
        {
          "internalType": "address",
          "name": "spender",
          "type": "address"
        },
        {
          "internalType": "uint256",
          "name": "subtractedValue",
          "type": "uint256"
        }
      ],
      "name": "decreaseAllowance",
      "outputs": [
        {
          "internalType": "bool",
          "name": "",
          "type": "bool"
        }
      ],
      "stateMutability": "nonpayable",
      "type": "function"
    },
    {
      "inputs": [
        {
          "internalType": "address",
          "name": "recipient",
          "type": "address"
        },
        {
          "internalType": "uint256",
          "name": "amount",
          "type": "uint256"
        }
      ],
      "name": "faucet",
      "outputs": [],
      "stateMutability": "nonpayable",
      "type": "function"
    },
    {
      "inputs": [
        {
          "internalType": "address",
          "name": "spender",
          "type": "address"
        },
        {
          "internalType": "uint256",
          "name": "addedValue",
          "type": "uint256"
        }
      ],
      "name": "increaseAllowance",
      "outputs": [
        {
          "internalType": "bool",
          "name": "",
          "type": "bool"
        }
      ],
      "stateMutability": "nonpayable",
      "type": "function"
    },
    {
      "inputs": [],
      "name": "name",
      "outputs": [
        {
          "internalType": "string",
          "name": "",
          "type": "string"
        }
      ],
      "stateMutability": "view",
      "type": "function",
      "constant": true
    },
    {
      "inputs": [],
      "name": "rate",
      "outputs": [
        {
          "internalType": "uint256",
          "name": "",
          "type": "uint256"
        }
      ],
      "stateMutability": "view",
      "type": "function",
      "constant": true
    },
    {
      "inputs": [
        {
          "internalType": "address",
          "name": "",
          "type": "address"
        },
        {
          "internalType": "address",
          "name": "",
          "type": "address"
        }
      ],
      "name": "stacker",
      "outputs": [
        {
          "internalType": "uint256",
          "name": "balance",
          "type": "uint256"
        },
        {
          "internalType": "uint256",
          "name": "DepositTime",
          "type": "uint256"
        },
        {
          "internalType": "uint256",
          "name": "decimals",
          "type": "uint256"
        }
      ],
      "stateMutability": "view",
      "type": "function",
      "constant": true
    },
    {
      "inputs": [],
      "name": "symbol",
      "outputs": [
        {
          "internalType": "string",
          "name": "",
          "type": "string"
        }
      ],
      "stateMutability": "view",
      "type": "function",
      "constant": true
    },
    {
      "inputs": [
        {
          "internalType": "address",
          "name": "",
          "type": "address"
        }
      ],
      "name": "tokenPriceFeedMapping",
      "outputs": [
        {
          "internalType": "address",
          "name": "",
          "type": "address"
        }
      ],
      "stateMutability": "view",
      "type": "function",
      "constant": true
    },
    {
      "inputs": [],
      "name": "totalSupply",
      "outputs": [
        {
          "internalType": "uint256",
          "name": "",
          "type": "uint256"
        }
      ],
      "stateMutability": "view",
      "type": "function",
      "constant": true
    },
    {
      "inputs": [
        {
          "internalType": "address",
          "name": "to",
          "type": "address"
        },
        {
          "internalType": "uint256",
          "name": "amount",
          "type": "uint256"
        }
      ],
      "name": "transfer",
      "outputs": [
        {
          "internalType": "bool",
          "name": "",
          "type": "bool"
        }
      ],
      "stateMutability": "nonpayable",
      "type": "function"
    },
    {
      "inputs": [
        {
          "internalType": "address",
          "name": "from",
          "type": "address"
        },
        {
          "internalType": "address",
          "name": "to",
          "type": "address"
        },
        {
          "internalType": "uint256",
          "name": "amount",
          "type": "uint256"
        }
      ],
      "name": "transferFrom",
      "outputs": [
        {
          "internalType": "bool",
          "name": "",
          "type": "bool"
        }
      ],
      "stateMutability": "nonpayable",
      "type": "function"
    },
    {
      "inputs": [
        {
          "internalType": "address",
          "name": "_token",
          "type": "address"
        },
        {
          "internalType": "uint256",
          "name": "_amount",
          "type": "uint256"
        },
        {
          "internalType": "uint256",
          "name": "_decimals",
          "type": "uint256"
        }
      ],
      "name": "depositToken",
      "outputs": [],
      "stateMutability": "nonpayable",
      "type": "function"
    },
    {
      "inputs": [
        {
          "internalType": "address",
          "name": "_token",
          "type": "address"
        },
        {
          "internalType": "uint256",
          "name": "_amount",
          "type": "uint256"
        }
      ],
      "name": "withdrawToken",
      "outputs": [],
      "stateMutability": "nonpayable",
      "type": "function"
    },
    {
      "inputs": [
        {
          "internalType": "address",
          "name": "_token",
          "type": "address"
        },
        {
          "internalType": "address",
          "name": "_user",
          "type": "address"
        }
      ],
      "name": "getRewardValue",
      "outputs": [
        {
          "internalType": "uint256",
          "name": "",
          "type": "uint256"
        }
      ],
      "stateMutability": "view",
      "type": "function",
      "constant": true
    },
    {
      "inputs": [
        {
          "internalType": "address",
          "name": "_token",
          "type": "address"
        },
        {
          "internalType": "address",
          "name": "_user",
          "type": "address"
        }
      ],
      "name": "getBalanceValue",
      "outputs": [
        {
          "internalType": "uint256",
          "name": "",
          "type": "uint256"
        }
      ],
      "stateMutability": "view",
      "type": "function",
      "constant": true
    },
    {
      "inputs": [
        {
          "internalType": "address",
          "name": "_token",
          "type": "address"
        },
        {
          "internalType": "address",
          "name": "_user",
          "type": "address"
        }
      ],
      "name": "getTimeStamp",
      "outputs": [
        {
          "internalType": "uint256",
          "name": "",
          "type": "uint256"
        }
      ],
      "stateMutability": "view",
      "type": "function",
      "constant": true
    },
    {
      "inputs": [
        {
          "internalType": "address",
          "name": "_token",
          "type": "address"
        },
        {
          "internalType": "address",
          "name": "_user",
          "type": "address"
        }
      ],
      "name": "getBalance",
      "outputs": [
        {
          "internalType": "uint256",
          "name": "",
          "type": "uint256"
        }
      ],
      "stateMutability": "view",
      "type": "function",
      "constant": true
    },
    {
      "inputs": [
        {
          "internalType": "address",
          "name": "_token",
          "type": "address"
        }
      ],
      "name": "reedemReward",
      "outputs": [],
      "stateMutability": "nonpayable",
      "type": "function"
    },
    {
      "inputs": [
        {
          "internalType": "address",
          "name": "base",
          "type": "address"
        },
        {
          "internalType": "address",
          "name": "quote",
          "type": "address"
        }
      ],
      "name": "getPrice",
      "outputs": [
        {
          "internalType": "int256",
          "name": "",
          "type": "int256"
        }
      ],
      "stateMutability": "view",
      "type": "function",
      "constant": true
    }
  ],
  "bytecode": "0x608060405260016004556001600e55610348600f60006101000a81548173ffffffffffffffffffffffffffffffffffffffff021916908373ffffffffffffffffffffffffffffffffffffffff1602179055503480156200005e57600080fd5b506040516200290038038062002900833981810160405281019062000084919062000286565b6040518060400160405280600f81526020017f5265636f6d70656e736520436f696e00000000000000000000000000000000008152506040518060400160405280600381526020017f52454300000000000000000000000000000000000000000000000000000000008152508160099080519060200190620001089291906200016c565b5080600a9080519060200190620001219291906200016c565b50505080600d60006101000a81548173ffffffffffffffffffffffffffffffffffffffff021916908373ffffffffffffffffffffffffffffffffffffffff160217905550506200031d565b8280546200017a90620002e7565b90600052602060002090601f0160209004810192826200019e5760008555620001ea565b82601f10620001b957805160ff1916838001178555620001ea565b82800160010185558215620001ea579182015b82811115620001e9578251825591602001919060010190620001cc565b5b509050620001f99190620001fd565b5090565b5b8082111562000218576000816000905550600101620001fe565b5090565b600080fd5b600073ffffffffffffffffffffffffffffffffffffffff82169050919050565b60006200024e8262000221565b9050919050565b620002608162000241565b81146200026c57600080fd5b50565b600081519050620002808162000255565b92915050565b6000602082840312156200029f576200029e6200021c565b5b6000620002af848285016200026f565b91505092915050565b7f4e487b7100000000000000000000000000000000000000000000000000000000600052602260045260246000fd5b600060028204905060018216806200030057607f821691505b60208210811415620003175762000316620002b8565b5b50919050565b6125d3806200032d6000396000f3fe608060405234801561001057600080fd5b506004361061016a576000357c0100000000000000000000000000000000000000000000000000000000900480636447c5a2116100e0578063a457c2d711610099578063a457c2d7146103f7578063a9059cbb14610427578063ac41865a14610457578063d4fac45d14610487578063dd62ed3e146104b7578063febece89146104e75761016a565b80636447c5a21461033957806370a08231146103555780637b56c2b21461038557806395d89b41146103a157806399c6d2de146103bf5780639e281a98146103db5761016a565b806323cd9a861161013257806323cd9a861461023b5780632478d3c01461026b57806327927b3e1461029d5780632c4e722e146102cd578063313ce567146102eb57806339509351146103095761016a565b806306fdde031461016f578063095ea7b31461018d5780630f1e5053146101bd57806318160ddd146101ed57806323b872dd1461020b575b600080fd5b610177610517565b60405161018491906119be565b60405180910390f35b6101a760048036038101906101a29190611a79565b6105a9565b6040516101b49190611ad4565b60405180910390f35b6101d760048036038101906101d29190611aef565b6105cc565b6040516101e49190611b3e565b60405180910390f35b6101f561060d565b6040516102029190611b3e565b60405180910390f35b61022560048036038101906102209190611b59565b610617565b6040516102329190611ad4565b60405180910390f35b61025560048036038101906102509190611aef565b610646565b6040516102629190611b3e565b60405180910390f35b61028560048036038101906102809190611aef565b6106e7565b60405161029493929190611bac565b60405180910390f35b6102b760048036038101906102b29190611be3565b61071e565b6040516102c49190611c1f565b60405180910390f35b6102d5610751565b6040516102e29190611b3e565b60405180910390f35b6102f3610757565b6040516103009190611c56565b60405180910390f35b610323600480360381019061031e9190611a79565b610760565b6040516103309190611ad4565b60405180910390f35b610353600480360381019061034e9190611be3565b61080a565b005b61036f600480360381019061036a9190611be3565b6108f0565b60405161037c9190611b3e565b60405180910390f35b61039f600480360381019061039a9190611a79565b610939565b005b6103a9610947565b6040516103b691906119be565b60405180910390f35b6103d960048036038101906103d49190611c71565b6109d9565b005b6103f560048036038101906103f09190611a79565b610dbf565b005b610411600480360381019061040c9190611a79565b610f82565b60405161041e9190611ad4565b60405180910390f35b610441600480360381019061043c9190611a79565b61106c565b60405161044e9190611ad4565b60405180910390f35b610471600480360381019061046c9190611aef565b61108f565b60405161047e9190611cdd565b60405180910390f35b6104a1600480360381019061049c9190611aef565b61117c565b6040516104ae9190611b3e565b60405180910390f35b6104d160048036038101906104cc9190611aef565b611206565b6040516104de9190611b3e565b60405180910390f35b61050160048036038101906104fc9190611aef565b61128d565b60405161050e9190611b3e565b60405180910390f35b60606009805461052690611d27565b80601f016020809104026020016040519081016040528092919081815260200182805461055290611d27565b801561059f5780601f106105745761010080835404028352916020019161059f565b820191906000526020600020905b81548152906001019060200180831161058257829003601f168201915b5050505050905090565b6000806105b46112d7565b90506105c18185856112df565b600191505092915050565b60006105d88383610646565b600e5460646105e7868661128d565b6105f19190611db7565b6105fb9190611de8565b6106059190611de8565b905092915050565b6000600854905090565b6000806106226112d7565b905061062f8582856114aa565b61063a858585611536565b60019150509392505050565b6000603c600c60008473ffffffffffffffffffffffffffffffffffffffff1673ffffffffffffffffffffffffffffffffffffffff16815260200190815260200160002060008573ffffffffffffffffffffffffffffffffffffffff1673ffffffffffffffffffffffffffffffffffffffff16815260200190815260200160002060010154426106d59190611e42565b6106df9190611db7565b905092915050565b600c602052816000526040600020602052806000526040600020600091509150508060000154908060010154908060020154905083565b600b6020528060005260406000206000915054906101000a900473ffffffffffffffffffffffffffffffffffffffff1681565b600e5481565b60006012905090565b60008061076b6112d7565b90506107ff818585600760008673ffffffffffffffffffffffffffffffffffffffff1673ffffffffffffffffffffffffffffffffffffffff16815260200190815260200160002060008973ffffffffffffffffffffffffffffffffffffffff1673ffffffffffffffffffffffffffffffffffffffff168152602001908152602001600020546107fa9190611e76565b6112df565b600191505092915050565b600061081682336105cc565b11610856576040517f08c379a000000000000000000000000000000000000000000000000000000000815260040161084d90611f18565b60405180910390fd5b6108693361086483336105cc565b6117ba565b42600c60003373ffffffffffffffffffffffffffffffffffffffff1673ffffffffffffffffffffffffffffffffffffffff16815260200190815260200160002060008373ffffffffffffffffffffffffffffffffffffffff1673ffffffffffffffffffffffffffffffffffffffff1681526020019081526020016000206001018190555050565b6000600660008373ffffffffffffffffffffffffffffffffffffffff1673ffffffffffffffffffffffffffffffffffffffff168152602001908152602001600020549050919050565b61094382826117ba565b5050565b6060600a805461095690611d27565b80601f016020809104026020016040519081016040528092919081815260200182805461098290611d27565b80156109cf5780601f106109a4576101008083540402835291602001916109cf565b820191906000526020600020905b8154815290600101906020018083116109b257829003601f168201915b5050505050905090565b8273ffffffffffffffffffffffffffffffffffffffff166323b872dd3330856040518463ffffffff167c0100000000000000000000000000000000000000000000000000000000028152600401610a3293929190611f38565b6020604051808303816000875af1158015610a51573d6000803e3d6000fd5b505050506040513d601f19601f82011682018060405250810190610a759190611f9b565b5081600c60003373ffffffffffffffffffffffffffffffffffffffff1673ffffffffffffffffffffffffffffffffffffffff16815260200190815260200160002060008573ffffffffffffffffffffffffffffffffffffffff1673ffffffffffffffffffffffffffffffffffffffff1681526020019081526020016000206000016000828254610b059190611e76565b9250508190555080600c60003373ffffffffffffffffffffffffffffffffffffffff1673ffffffffffffffffffffffffffffffffffffffff16815260200190815260200160002060008573ffffffffffffffffffffffffffffffffffffffff1673ffffffffffffffffffffffffffffffffffffffff168152602001908152602001600020600201819055506000600c60003373ffffffffffffffffffffffffffffffffffffffff1673ffffffffffffffffffffffffffffffffffffffff16815260200190815260200160002060008573ffffffffffffffffffffffffffffffffffffffff1673ffffffffffffffffffffffffffffffffffffffff1681526020019081526020016000206001015414610d355742600c60003373ffffffffffffffffffffffffffffffffffffffff1673ffffffffffffffffffffffffffffffffffffffff16815260200190815260200160002060008573ffffffffffffffffffffffffffffffffffffffff1673ffffffffffffffffffffffffffffffffffffffff1681526020019081526020016000206001015442610ca39190611e42565b610cad9190611e76565b600c60003373ffffffffffffffffffffffffffffffffffffffff1673ffffffffffffffffffffffffffffffffffffffff16815260200190815260200160002060008573ffffffffffffffffffffffffffffffffffffffff1673ffffffffffffffffffffffffffffffffffffffff16815260200190815260200160002060010181905550610dba565b42600c60003373ffffffffffffffffffffffffffffffffffffffff1673ffffffffffffffffffffffffffffffffffffffff16815260200190815260200160002060008573ffffffffffffffffffffffffffffffffffffffff1673ffffffffffffffffffffffffffffffffffffffff168152602001908152602001600020600101819055505b505050565b80600c60003373ffffffffffffffffffffffffffffffffffffffff1673ffffffffffffffffffffffffffffffffffffffff16815260200190815260200160002060008473ffffffffffffffffffffffffffffffffffffffff1673ffffffffffffffffffffffffffffffffffffffff168152602001908152602001600020600001541015610e4b57600080fd5b8173ffffffffffffffffffffffffffffffffffffffff166323b872dd3330846040518463ffffffff167c0100000000000000000000000000000000000000000000000000000000028152600401610ea493929190611f38565b6020604051808303816000875af1158015610ec3573d6000803e3d6000fd5b505050506040513d601f19601f82011682018060405250810190610ee79190611f9b565b5080600c60003373ffffffffffffffffffffffffffffffffffffffff1673ffffffffffffffffffffffffffffffffffffffff16815260200190815260200160002060008473ffffffffffffffffffffffffffffffffffffffff1673ffffffffffffffffffffffffffffffffffffffff1681526020019081526020016000206000016000828254610f779190611e42565b925050819055505050565b600080610f8d6112d7565b90506000600760008373ffffffffffffffffffffffffffffffffffffffff1673ffffffffffffffffffffffffffffffffffffffff16815260200190815260200160002060008673ffffffffffffffffffffffffffffffffffffffff1673ffffffffffffffffffffffffffffffffffffffff16815260200190815260200160002054905083811015611053576040517f08c379a000000000000000000000000000000000000000000000000000000000815260040161104a9061203a565b60405180910390fd5b61106082868684036112df565b60019250505092915050565b6000806110776112d7565b9050611084818585611536565b600191505092915050565b6000806000806000806000600d60009054906101000a900473ffffffffffffffffffffffffffffffffffffffff1673ffffffffffffffffffffffffffffffffffffffff1663bcfd032d8a8a6040518363ffffffff167c010000000000000000000000000000000000000000000000000000000002815260040161111392919061205a565b60a060405180830381865afa158015611130573d6000803e3d6000fd5b505050506040513d601f19601f820116820180604052508101906111549190612106565b945094509450945094506305f5e1008461116e9190612181565b965050505050505092915050565b6000600c60008373ffffffffffffffffffffffffffffffffffffffff1673ffffffffffffffffffffffffffffffffffffffff16815260200190815260200160002060008473ffffffffffffffffffffffffffffffffffffffff1673ffffffffffffffffffffffffffffffffffffffff16815260200190815260200160002060000154905092915050565b6000600760008473ffffffffffffffffffffffffffffffffffffffff1673ffffffffffffffffffffffffffffffffffffffff16815260200190815260200160002060008373ffffffffffffffffffffffffffffffffffffffff1673ffffffffffffffffffffffffffffffffffffffff16815260200190815260200160002054905092915050565b60006112bb83600f60009054906101000a900473ffffffffffffffffffffffffffffffffffffffff1661108f565b6112c5848461117c565b6112cf9190611de8565b905092915050565b600033905090565b600073ffffffffffffffffffffffffffffffffffffffff168373ffffffffffffffffffffffffffffffffffffffff16141561134f576040517f08c379a00000000000000000000000000000000000000000000000000000000081526004016113469061225d565b60405180910390fd5b600073ffffffffffffffffffffffffffffffffffffffff168273ffffffffffffffffffffffffffffffffffffffff1614156113bf576040517f08c379a00000000000000000000000000000000000000000000000000000000081526004016113b6906122ef565b60405180910390fd5b80600760008573ffffffffffffffffffffffffffffffffffffffff1673ffffffffffffffffffffffffffffffffffffffff16815260200190815260200160002060008473ffffffffffffffffffffffffffffffffffffffff1673ffffffffffffffffffffffffffffffffffffffff168152602001908152602001600020819055508173ffffffffffffffffffffffffffffffffffffffff168373ffffffffffffffffffffffffffffffffffffffff167f8c5be1e5ebec7d5bd14f71427d1e84f3dd0314c0f7b2291e5b200ac8c7c3b9258360405161149d9190611b3e565b60405180910390a3505050565b60006114b68484611206565b90507fffffffffffffffffffffffffffffffffffffffffffffffffffffffffffffffff81146115305781811015611522576040517f08c379a00000000000000000000000000000000000000000000000000000000081526004016115199061235b565b60405180910390fd5b61152f84848484036112df565b5b50505050565b600073ffffffffffffffffffffffffffffffffffffffff168373ffffffffffffffffffffffffffffffffffffffff1614156115a6576040517f08c379a000000000000000000000000000000000000000000000000000000000815260040161159d906123ed565b60405180910390fd5b600073ffffffffffffffffffffffffffffffffffffffff168273ffffffffffffffffffffffffffffffffffffffff161415611616576040517f08c379a000000000000000000000000000000000000000000000000000000000815260040161160d9061247f565b60405180910390fd5b61162183838361191b565b6000600660008573ffffffffffffffffffffffffffffffffffffffff1673ffffffffffffffffffffffffffffffffffffffff168152602001908152602001600020549050818110156116a8576040517f08c379a000000000000000000000000000000000000000000000000000000000815260040161169f90612511565b60405180910390fd5b818103600660008673ffffffffffffffffffffffffffffffffffffffff1673ffffffffffffffffffffffffffffffffffffffff1681526020019081526020016000208190555081600660008573ffffffffffffffffffffffffffffffffffffffff1673ffffffffffffffffffffffffffffffffffffffff168152602001908152602001600020600082825461173d9190611e76565b925050819055508273ffffffffffffffffffffffffffffffffffffffff168473ffffffffffffffffffffffffffffffffffffffff167fddf252ad1be2c89b69c2b068fc378daa952ba7f163c4a11628f55a4df523b3ef846040516117a19190611b3e565b60405180910390a36117b4848484611920565b50505050565b600073ffffffffffffffffffffffffffffffffffffffff168273ffffffffffffffffffffffffffffffffffffffff16141561182a576040517f08c379a00000000000000000000000000000000000000000000000000000000081526004016118219061257d565b60405180910390fd5b6118366000838361191b565b80600860008282546118489190611e76565b9250508190555080600660008473ffffffffffffffffffffffffffffffffffffffff1673ffffffffffffffffffffffffffffffffffffffff168152602001908152602001600020600082825461189e9190611e76565b925050819055508173ffffffffffffffffffffffffffffffffffffffff16600073ffffffffffffffffffffffffffffffffffffffff167fddf252ad1be2c89b69c2b068fc378daa952ba7f163c4a11628f55a4df523b3ef836040516119039190611b3e565b60405180910390a361191760008383611920565b5050565b505050565b505050565b600081519050919050565b600082825260208201905092915050565b60005b8381101561195f578082015181840152602081019050611944565b8381111561196e576000848401525b50505050565b6000601f19601f8301169050919050565b600061199082611925565b61199a8185611930565b93506119aa818560208601611941565b6119b381611974565b840191505092915050565b600060208201905081810360008301526119d88184611985565b905092915050565b600080fd5b600073ffffffffffffffffffffffffffffffffffffffff82169050919050565b6000611a10826119e5565b9050919050565b611a2081611a05565b8114611a2b57600080fd5b50565b600081359050611a3d81611a17565b92915050565b6000819050919050565b611a5681611a43565b8114611a6157600080fd5b50565b600081359050611a7381611a4d565b92915050565b60008060408385031215611a9057611a8f6119e0565b5b6000611a9e85828601611a2e565b9250506020611aaf85828601611a64565b9150509250929050565b60008115159050919050565b611ace81611ab9565b82525050565b6000602082019050611ae96000830184611ac5565b92915050565b60008060408385031215611b0657611b056119e0565b5b6000611b1485828601611a2e565b9250506020611b2585828601611a2e565b9150509250929050565b611b3881611a43565b82525050565b6000602082019050611b536000830184611b2f565b92915050565b600080600060608486031215611b7257611b716119e0565b5b6000611b8086828701611a2e565b9350506020611b9186828701611a2e565b9250506040611ba286828701611a64565b9150509250925092565b6000606082019050611bc16000830186611b2f565b611bce6020830185611b2f565b611bdb6040830184611b2f565b949350505050565b600060208284031215611bf957611bf86119e0565b5b6000611c0784828501611a2e565b91505092915050565b611c1981611a05565b82525050565b6000602082019050611c346000830184611c10565b92915050565b600060ff82169050919050565b611c5081611c3a565b82525050565b6000602082019050611c6b6000830184611c47565b92915050565b600080600060608486031215611c8a57611c896119e0565b5b6000611c9886828701611a2e565b9350506020611ca986828701611a64565b9250506040611cba86828701611a64565b9150509250925092565b6000819050919050565b611cd781611cc4565b82525050565b6000602082019050611cf26000830184611cce565b92915050565b7f4e487b7100000000000000000000000000000000000000000000000000000000600052602260045260246000fd5b60006002820490506001821680611d3f57607f821691505b60208210811415611d5357611d52611cf8565b5b50919050565b7f4e487b7100000000000000000000000000000000000000000000000000000000600052601260045260246000fd5b7f4e487b7100000000000000000000000000000000000000000000000000000000600052601160045260246000fd5b6000611dc282611a43565b9150611dcd83611a43565b925082611ddd57611ddc611d59565b5b828204905092915050565b6000611df382611a43565b9150611dfe83611a43565b9250817fffffffffffffffffffffffffffffffffffffffffffffffffffffffffffffffff0483118215151615611e3757611e36611d88565b5b828202905092915050565b6000611e4d82611a43565b9150611e5883611a43565b925082821015611e6b57611e6a611d88565b5b828203905092915050565b6000611e8182611a43565b9150611e8c83611a43565b9250827fffffffffffffffffffffffffffffffffffffffffffffffffffffffffffffffff03821115611ec157611ec0611d88565b5b828201905092915050565b7f4e6f7468696e6720746f2072656564656d000000000000000000000000000000600082015250565b6000611f02601183611930565b9150611f0d82611ecc565b602082019050919050565b60006020820190508181036000830152611f3181611ef5565b9050919050565b6000606082019050611f4d6000830186611c10565b611f5a6020830185611c10565b611f676040830184611b2f565b949350505050565b611f7881611ab9565b8114611f8357600080fd5b50565b600081519050611f9581611f6f565b92915050565b600060208284031215611fb157611fb06119e0565b5b6000611fbf84828501611f86565b91505092915050565b7f45524332303a2064656372656173656420616c6c6f77616e63652062656c6f7760008201527f207a65726f000000000000000000000000000000000000000000000000000000602082015250565b6000612024602583611930565b915061202f82611fc8565b604082019050919050565b6000602082019050818103600083015261205381612017565b9050919050565b600060408201905061206f6000830185611c10565b61207c6020830184611c10565b9392505050565b600069ffffffffffffffffffff82169050919050565b6120a281612083565b81146120ad57600080fd5b50565b6000815190506120bf81612099565b92915050565b6120ce81611cc4565b81146120d957600080fd5b50565b6000815190506120eb816120c5565b92915050565b60008151905061210081611a4d565b92915050565b600080600080600060a08688031215612122576121216119e0565b5b6000612130888289016120b0565b9550506020612141888289016120dc565b9450506040612152888289016120f1565b9350506060612163888289016120f1565b9250506080612174888289016120b0565b9150509295509295909350565b600061218c82611cc4565b915061219783611cc4565b9250826121a7576121a6611d59565b5b600160000383147f8000000000000000000000000000000000000000000000000000000000000000831416156121e0576121df611d88565b5b828205905092915050565b7f45524332303a20617070726f76652066726f6d20746865207a65726f2061646460008201527f7265737300000000000000000000000000000000000000000000000000000000602082015250565b6000612247602483611930565b9150612252826121eb565b604082019050919050565b600060208201905081810360008301526122768161223a565b9050919050565b7f45524332303a20617070726f766520746f20746865207a65726f20616464726560008201527f7373000000000000000000000000000000000000000000000000000000000000602082015250565b60006122d9602283611930565b91506122e48261227d565b604082019050919050565b60006020820190508181036000830152612308816122cc565b9050919050565b7f45524332303a20696e73756666696369656e7420616c6c6f77616e6365000000600082015250565b6000612345601d83611930565b91506123508261230f565b602082019050919050565b6000602082019050818103600083015261237481612338565b9050919050565b7f45524332303a207472616e736665722066726f6d20746865207a65726f20616460008201527f6472657373000000000000000000000000000000000000000000000000000000602082015250565b60006123d7602583611930565b91506123e28261237b565b604082019050919050565b60006020820190508181036000830152612406816123ca565b9050919050565b7f45524332303a207472616e7366657220746f20746865207a65726f206164647260008201527f6573730000000000000000000000000000000000000000000000000000000000602082015250565b6000612469602383611930565b91506124748261240d565b604082019050919050565b600060208201905081810360008301526124988161245c565b9050919050565b7f45524332303a207472616e7366657220616d6f756e742065786365656473206260008201527f616c616e63650000000000000000000000000000000000000000000000000000602082015250565b60006124fb602683611930565b91506125068261249f565b604082019050919050565b6000602082019050818103600083015261252a816124ee565b9050919050565b7f45524332303a206d696e7420746f20746865207a65726f206164647265737300600082015250565b6000612567601f83611930565b915061257282612531565b602082019050919050565b600060208201905081810360008301526125968161255a565b905091905056fea26469706673582212203a59822d8948921b81e4ec7c0def4e63d99efca9484804f678bf795dfebd8c7a64736f6c634300080c0033",
  "immutableReferences": {},
  "source": "pragma solidity 0.8.12;\r\n\r\nimport \"@openzeppelin/contracts/token/ERC20/IERC20.sol\";\r\nimport \"@chainlink/contracts/src/v0.8/interfaces/AggregatorV3Interface.sol\";\r\nimport \"@chainlink/contracts/src/v0.8/ChainlinkClient.sol\";\r\nimport \"@chainlink/contracts/src/v0.8/interfaces/FeedRegistryInterface.sol\";\r\nimport \"./Rec.sol\";\r\n\r\ncontract StackingCore is ChainlinkClient, Rec {\r\n    struct Stacker {\r\n        uint256 balance;\r\n        uint256 DepositTime;\r\n        uint256 decimals;\r\n    }\r\n\r\n    mapping(address => address) public tokenPriceFeedMapping;\r\n    mapping(address => mapping(address => Stacker)) public stacker;\r\n\r\n    FeedRegistryInterface internal registry;\r\n    uint256 public rate = 1;\r\n    address USD = 0x0000000000000000000000000000000000000348;\r\n\r\n    constructor(address _registry) {\r\n        registry = FeedRegistryInterface(_registry);\r\n    }\r\n\r\n    function depositToken(\r\n        address _token,\r\n        uint256 _amount,\r\n        uint256 _decimals\r\n    ) public {\r\n        IERC20(_token).transferFrom(msg.sender, address(this), _amount);\r\n        stacker[msg.sender][_token].balance += _amount;\r\n        stacker[msg.sender][_token].decimals = _decimals;\r\n        if (stacker[msg.sender][_token].DepositTime != 0) {\r\n            stacker[msg.sender][_token].DepositTime =\r\n                (block.timestamp - stacker[msg.sender][_token].DepositTime) +\r\n                block.timestamp;\r\n        } else {\r\n            stacker[msg.sender][_token].DepositTime = block.timestamp;\r\n        }\r\n    }\r\n\r\n    function withdrawToken(address _token, uint256 _amount) public {\r\n        require(stacker[msg.sender][_token].balance >= _amount);\r\n        IERC20(_token).transferFrom(msg.sender, address(this), _amount);\r\n        stacker[msg.sender][_token].balance -= _amount;\r\n    }\r\n\r\n    function getRewardValue(address _token, address _user)\r\n        public\r\n        view\r\n        returns (uint256)\r\n    {\r\n        return\r\n            ((getBalanceValue(_token, _user) / 100) * rate) *\r\n            getTimeStamp(_token, _user);\r\n    }\r\n\r\n    // function setRewardValue(address _token, address _user) public {\r\n    //     stacker[_user][_token].reward =\r\n    //         (((getBalanceValue(_token, _user) / 100) * rate) *\r\n    //             (getTimeStamp(_token, _user) / 24)) *\r\n    //         10**18;\r\n    // }\r\n\r\n    function getBalanceValue(address _token, address _user)\r\n        public\r\n        view\r\n        returns (uint256)\r\n    {\r\n        return ((getBalance(_token, _user) * uint256(getPrice(_token, USD))));\r\n    }\r\n\r\n    function getTimeStamp(address _token, address _user)\r\n        public\r\n        view\r\n        returns (uint256)\r\n    {\r\n        return (block.timestamp - stacker[_user][_token].DepositTime) / 60;\r\n    }\r\n\r\n    function getBalance(address _token, address _user)\r\n        public\r\n        view\r\n        returns (uint256)\r\n    {\r\n        return stacker[_user][_token].balance;\r\n    }\r\n\r\n    function reedemReward(address _token) public {\r\n        require(getRewardValue(_token, msg.sender) > 0, \"Nothing to reedem\");\r\n        _mint(msg.sender, getRewardValue(_token, msg.sender));\r\n        stacker[msg.sender][_token].DepositTime = block.timestamp;\r\n    }\r\n\r\n    function getPrice(address base, address quote)\r\n        public\r\n        view\r\n        returns (int256)\r\n    {\r\n        int8 decimals;\r\n        (\r\n            uint80 roundID,\r\n            int256 price,\r\n            uint256 startedAt,\r\n            uint256 timeStamp,\r\n            uint80 answeredInRound\r\n        ) = registry.latestRoundData(base, quote);\r\n        return price / 10**8;\r\n    }\r\n}\r\n",
  "sourcePath": "C:\\Users\\Tristan\\Desktop\\ALyra\\Defi-4\\contracts\\StackingCore.sol",
  "compiler": {
    "name": "solc",
    "version": "0.8.12+commit.f00d7308.Emscripten.clang"
  },
  "schemaVersion": "3.4.4",
  "updatedAt": "2022-03-28T10:17:52.350Z",
  "networkType": "ethereum",
  "devdoc": {
    "kind": "dev",
    "methods": {
      "allowance(address,address)": {
        "details": "See {IERC20-allowance}."
      },
      "approve(address,uint256)": {
        "details": "See {IERC20-approve}. NOTE: If `amount` is the maximum `uint256`, the allowance is not updated on `transferFrom`. This is semantically equivalent to an infinite approval. Requirements: - `spender` cannot be the zero address."
      },
      "balanceOf(address)": {
        "details": "See {IERC20-balanceOf}."
      },
      "decimals()": {
        "details": "Returns the number of decimals used to get its user representation. For example, if `decimals` equals `2`, a balance of `505` tokens should be displayed to a user as `5.05` (`505 / 10 ** 2`). Tokens usually opt for a value of 18, imitating the relationship between Ether and Wei. This is the value {ERC20} uses, unless this function is overridden; NOTE: This information is only used for _display_ purposes: it in no way affects any of the arithmetic of the contract, including {IERC20-balanceOf} and {IERC20-transfer}."
      },
      "decreaseAllowance(address,uint256)": {
        "details": "Atomically decreases the allowance granted to `spender` by the caller. This is an alternative to {approve} that can be used as a mitigation for problems described in {IERC20-approve}. Emits an {Approval} event indicating the updated allowance. Requirements: - `spender` cannot be the zero address. - `spender` must have allowance for the caller of at least `subtractedValue`."
      },
      "increaseAllowance(address,uint256)": {
        "details": "Atomically increases the allowance granted to `spender` by the caller. This is an alternative to {approve} that can be used as a mitigation for problems described in {IERC20-approve}. Emits an {Approval} event indicating the updated allowance. Requirements: - `spender` cannot be the zero address."
      },
      "name()": {
        "details": "Returns the name of the token."
      },
      "symbol()": {
        "details": "Returns the symbol of the token, usually a shorter version of the name."
      },
      "totalSupply()": {
        "details": "See {IERC20-totalSupply}."
      },
      "transfer(address,uint256)": {
        "details": "See {IERC20-transfer}. Requirements: - `to` cannot be the zero address. - the caller must have a balance of at least `amount`."
      },
      "transferFrom(address,address,uint256)": {
        "details": "See {IERC20-transferFrom}. Emits an {Approval} event indicating the updated allowance. This is not required by the EIP. See the note at the beginning of {ERC20}. NOTE: Does not update the allowance if the current allowance is the maximum `uint256`. Requirements: - `from` and `to` cannot be the zero address. - `from` must have a balance of at least `amount`. - the caller must have allowance for ``from``'s tokens of at least `amount`."
      }
    },
    "version": 1
  },
  "userdoc": {
    "kind": "user",
    "methods": {},
    "version": 1
  }
}