{
  "contractName": "StackingCore",
  "abi": [
    {
      "inputs": [
        {
          "internalType": "address",
          "name": "_registry",
          "type": "address"
        }
      ],
      "stateMutability": "nonpayable",
      "type": "constructor"
    },
    {
      "anonymous": false,
      "inputs": [
        {
          "indexed": true,
          "internalType": "address",
          "name": "owner",
          "type": "address"
        },
        {
          "indexed": true,
          "internalType": "address",
          "name": "spender",
          "type": "address"
        },
        {
          "indexed": false,
          "internalType": "uint256",
          "name": "value",
          "type": "uint256"
        }
      ],
      "name": "Approval",
      "type": "event"
    },
    {
      "anonymous": false,
      "inputs": [
        {
          "indexed": true,
          "internalType": "bytes32",
          "name": "id",
          "type": "bytes32"
        }
      ],
      "name": "ChainlinkCancelled",
      "type": "event"
    },
    {
      "anonymous": false,
      "inputs": [
        {
          "indexed": true,
          "internalType": "bytes32",
          "name": "id",
          "type": "bytes32"
        }
      ],
      "name": "ChainlinkFulfilled",
      "type": "event"
    },
    {
      "anonymous": false,
      "inputs": [
        {
          "indexed": true,
          "internalType": "bytes32",
          "name": "id",
          "type": "bytes32"
        }
      ],
      "name": "ChainlinkRequested",
      "type": "event"
    },
    {
      "anonymous": false,
      "inputs": [
        {
          "indexed": true,
          "internalType": "address",
          "name": "from",
          "type": "address"
        },
        {
          "indexed": true,
          "internalType": "address",
          "name": "to",
          "type": "address"
        },
        {
          "indexed": false,
          "internalType": "uint256",
          "name": "value",
          "type": "uint256"
        }
      ],
      "name": "Transfer",
      "type": "event"
    },
    {
      "inputs": [
        {
          "internalType": "address",
          "name": "owner",
          "type": "address"
        },
        {
          "internalType": "address",
          "name": "spender",
          "type": "address"
        }
      ],
      "name": "allowance",
      "outputs": [
        {
          "internalType": "uint256",
          "name": "",
          "type": "uint256"
        }
      ],
      "stateMutability": "view",
      "type": "function",
      "constant": true
    },
    {
      "inputs": [
        {
          "internalType": "address",
          "name": "spender",
          "type": "address"
        },
        {
          "internalType": "uint256",
          "name": "amount",
          "type": "uint256"
        }
      ],
      "name": "approve",
      "outputs": [
        {
          "internalType": "bool",
          "name": "",
          "type": "bool"
        }
      ],
      "stateMutability": "nonpayable",
      "type": "function"
    },
    {
      "inputs": [
        {
          "internalType": "address",
          "name": "account",
          "type": "address"
        }
      ],
      "name": "balanceOf",
      "outputs": [
        {
          "internalType": "uint256",
          "name": "",
          "type": "uint256"
        }
      ],
      "stateMutability": "view",
      "type": "function",
      "constant": true
    },
    {
      "inputs": [],
      "name": "decimals",
      "outputs": [
        {
          "internalType": "uint8",
          "name": "",
          "type": "uint8"
        }
      ],
      "stateMutability": "view",
      "type": "function",
      "constant": true
    },
    {
      "inputs": [
        {
          "internalType": "address",
          "name": "spender",
          "type": "address"
        },
        {
          "internalType": "uint256",
          "name": "subtractedValue",
          "type": "uint256"
        }
      ],
      "name": "decreaseAllowance",
      "outputs": [
        {
          "internalType": "bool",
          "name": "",
          "type": "bool"
        }
      ],
      "stateMutability": "nonpayable",
      "type": "function"
    },
    {
      "inputs": [
        {
          "internalType": "address",
          "name": "recipient",
          "type": "address"
        },
        {
          "internalType": "uint256",
          "name": "amount",
          "type": "uint256"
        }
      ],
      "name": "faucet",
      "outputs": [],
      "stateMutability": "nonpayable",
      "type": "function"
    },
    {
      "inputs": [
        {
          "internalType": "address",
          "name": "spender",
          "type": "address"
        },
        {
          "internalType": "uint256",
          "name": "addedValue",
          "type": "uint256"
        }
      ],
      "name": "increaseAllowance",
      "outputs": [
        {
          "internalType": "bool",
          "name": "",
          "type": "bool"
        }
      ],
      "stateMutability": "nonpayable",
      "type": "function"
    },
    {
      "inputs": [],
      "name": "name",
      "outputs": [
        {
          "internalType": "string",
          "name": "",
          "type": "string"
        }
      ],
      "stateMutability": "view",
      "type": "function",
      "constant": true
    },
    {
      "inputs": [],
      "name": "rate",
      "outputs": [
        {
          "internalType": "uint256",
          "name": "",
          "type": "uint256"
        }
      ],
      "stateMutability": "view",
      "type": "function",
      "constant": true
    },
    {
      "inputs": [
        {
          "internalType": "address",
          "name": "",
          "type": "address"
        },
        {
          "internalType": "address",
          "name": "",
          "type": "address"
        }
      ],
      "name": "stacker",
      "outputs": [
        {
          "internalType": "uint256",
          "name": "balance",
          "type": "uint256"
        },
        {
          "internalType": "uint256",
          "name": "DepositTime",
          "type": "uint256"
        },
        {
          "internalType": "uint256",
          "name": "LastUpdateTime",
          "type": "uint256"
        },
        {
          "internalType": "uint256",
          "name": "decimals",
          "type": "uint256"
        },
        {
          "internalType": "uint256",
          "name": "reward",
          "type": "uint256"
        }
      ],
      "stateMutability": "view",
      "type": "function",
      "constant": true
    },
    {
      "inputs": [],
      "name": "symbol",
      "outputs": [
        {
          "internalType": "string",
          "name": "",
          "type": "string"
        }
      ],
      "stateMutability": "view",
      "type": "function",
      "constant": true
    },
    {
      "inputs": [
        {
          "internalType": "address",
          "name": "",
          "type": "address"
        }
      ],
      "name": "tokenPriceFeedMapping",
      "outputs": [
        {
          "internalType": "address",
          "name": "",
          "type": "address"
        }
      ],
      "stateMutability": "view",
      "type": "function",
      "constant": true
    },
    {
      "inputs": [],
      "name": "totalSupply",
      "outputs": [
        {
          "internalType": "uint256",
          "name": "",
          "type": "uint256"
        }
      ],
      "stateMutability": "view",
      "type": "function",
      "constant": true
    },
    {
      "inputs": [
        {
          "internalType": "address",
          "name": "to",
          "type": "address"
        },
        {
          "internalType": "uint256",
          "name": "amount",
          "type": "uint256"
        }
      ],
      "name": "transfer",
      "outputs": [
        {
          "internalType": "bool",
          "name": "",
          "type": "bool"
        }
      ],
      "stateMutability": "nonpayable",
      "type": "function"
    },
    {
      "inputs": [
        {
          "internalType": "address",
          "name": "from",
          "type": "address"
        },
        {
          "internalType": "address",
          "name": "to",
          "type": "address"
        },
        {
          "internalType": "uint256",
          "name": "amount",
          "type": "uint256"
        }
      ],
      "name": "transferFrom",
      "outputs": [
        {
          "internalType": "bool",
          "name": "",
          "type": "bool"
        }
      ],
      "stateMutability": "nonpayable",
      "type": "function"
    },
    {
      "inputs": [
        {
          "internalType": "address",
          "name": "_token",
          "type": "address"
        },
        {
          "internalType": "uint256",
          "name": "_amount",
          "type": "uint256"
        },
        {
          "internalType": "uint256",
          "name": "_decimals",
          "type": "uint256"
        }
      ],
      "name": "depositToken",
      "outputs": [],
      "stateMutability": "nonpayable",
      "type": "function"
    },
    {
      "inputs": [
        {
          "internalType": "address",
          "name": "_token",
          "type": "address"
        },
        {
          "internalType": "uint256",
          "name": "_amount",
          "type": "uint256"
        }
      ],
      "name": "withdrawToken",
      "outputs": [],
      "stateMutability": "nonpayable",
      "type": "function"
    },
    {
      "inputs": [
        {
          "internalType": "address",
          "name": "_token",
          "type": "address"
        },
        {
          "internalType": "address",
          "name": "_user",
          "type": "address"
        }
      ],
      "name": "getRewardValue",
      "outputs": [
        {
          "internalType": "uint256",
          "name": "",
          "type": "uint256"
        }
      ],
      "stateMutability": "view",
      "type": "function",
      "constant": true
    },
    {
      "inputs": [
        {
          "internalType": "address",
          "name": "_token",
          "type": "address"
        },
        {
          "internalType": "address",
          "name": "_user",
          "type": "address"
        }
      ],
      "name": "getBalanceValue",
      "outputs": [
        {
          "internalType": "uint256",
          "name": "",
          "type": "uint256"
        }
      ],
      "stateMutability": "view",
      "type": "function",
      "constant": true
    },
    {
      "inputs": [
        {
          "internalType": "address",
          "name": "_token",
          "type": "address"
        },
        {
          "internalType": "address",
          "name": "_user",
          "type": "address"
        }
      ],
      "name": "getTimeStamp",
      "outputs": [
        {
          "internalType": "uint256",
          "name": "",
          "type": "uint256"
        }
      ],
      "stateMutability": "view",
      "type": "function",
      "constant": true
    },
    {
      "inputs": [
        {
          "internalType": "address",
          "name": "_token",
          "type": "address"
        }
      ],
      "name": "reedemReward",
      "outputs": [],
      "stateMutability": "nonpayable",
      "type": "function"
    },
    {
      "inputs": [
        {
          "internalType": "address",
          "name": "_token",
          "type": "address"
        },
        {
          "internalType": "address",
          "name": "_user",
          "type": "address"
        }
      ],
      "name": "getBalance",
      "outputs": [
        {
          "internalType": "uint256",
          "name": "",
          "type": "uint256"
        }
      ],
      "stateMutability": "view",
      "type": "function",
      "constant": true
    },
    {
      "inputs": [
        {
          "internalType": "address",
          "name": "base",
          "type": "address"
        },
        {
          "internalType": "address",
          "name": "quote",
          "type": "address"
        }
      ],
      "name": "getPrice",
      "outputs": [
        {
          "internalType": "int256",
          "name": "",
          "type": "int256"
        }
      ],
      "stateMutability": "view",
      "type": "function",
      "constant": true
    }
  ],
  "bytecode": "0x608060405260016004556001600e55610348600f60006101000a81548173ffffffffffffffffffffffffffffffffffffffff021916908373ffffffffffffffffffffffffffffffffffffffff1602179055503480156200005e57600080fd5b5060405162002a9938038062002a99833981810160405281019062000084919062000286565b6040518060400160405280600f81526020017f5265636f6d70656e736520436f696e00000000000000000000000000000000008152506040518060400160405280600381526020017f52454300000000000000000000000000000000000000000000000000000000008152508160099080519060200190620001089291906200016c565b5080600a9080519060200190620001219291906200016c565b50505080600d60006101000a81548173ffffffffffffffffffffffffffffffffffffffff021916908373ffffffffffffffffffffffffffffffffffffffff160217905550506200031d565b8280546200017a90620002e7565b90600052602060002090601f0160209004810192826200019e5760008555620001ea565b82601f10620001b957805160ff1916838001178555620001ea565b82800160010185558215620001ea579182015b82811115620001e9578251825591602001919060010190620001cc565b5b509050620001f99190620001fd565b5090565b5b8082111562000218576000816000905550600101620001fe565b5090565b600080fd5b600073ffffffffffffffffffffffffffffffffffffffff82169050919050565b60006200024e8262000221565b9050919050565b620002608162000241565b81146200026c57600080fd5b50565b600081519050620002808162000255565b92915050565b6000602082840312156200029f576200029e6200021c565b5b6000620002af848285016200026f565b91505092915050565b7f4e487b7100000000000000000000000000000000000000000000000000000000600052602260045260246000fd5b600060028204905060018216806200030057607f821691505b60208210811415620003175762000316620002b8565b5b50919050565b61276c806200032d6000396000f3fe608060405234801561001057600080fd5b506004361061016a576000357c0100000000000000000000000000000000000000000000000000000000900480636447c5a2116100e0578063a457c2d711610099578063a457c2d7146103f9578063a9059cbb14610429578063ac41865a14610459578063d4fac45d14610489578063dd62ed3e146104b9578063febece89146104e95761016a565b80636447c5a21461033b57806370a08231146103575780637b56c2b21461038757806395d89b41146103a357806399c6d2de146103c15780639e281a98146103dd5761016a565b806323cd9a861161013257806323cd9a861461023b5780632478d3c01461026b57806327927b3e1461029f5780632c4e722e146102cf578063313ce567146102ed578063395093511461030b5761016a565b806306fdde031461016f578063095ea7b31461018d5780630f1e5053146101bd57806318160ddd146101ed57806323b872dd1461020b575b600080fd5b610177610519565b6040516101849190611b12565b60405180910390f35b6101a760048036038101906101a29190611bcd565b6105ab565b6040516101b49190611c28565b60405180910390f35b6101d760048036038101906101d29190611c43565b6105ce565b6040516101e49190611c92565b60405180910390f35b6101f561060f565b6040516102029190611c92565b60405180910390f35b61022560048036038101906102209190611cad565b610619565b6040516102329190611c28565b60405180910390f35b61025560048036038101906102509190611c43565b610648565b6040516102629190611c92565b60405180910390f35b61028560048036038101906102809190611c43565b61077e565b604051610296959493929190611d00565b60405180910390f35b6102b960048036038101906102b49190611d53565b6107c1565b6040516102c69190611d8f565b60405180910390f35b6102d76107f4565b6040516102e49190611c92565b60405180910390f35b6102f56107fa565b6040516103029190611dc6565b60405180910390f35b61032560048036038101906103209190611bcd565b610803565b6040516103329190611c28565b60405180910390f35b61035560048036038101906103509190611d53565b6108ad565b005b610371600480360381019061036c9190611d53565b610a13565b60405161037e9190611c92565b60405180910390f35b6103a1600480360381019061039c9190611bcd565b610a5c565b005b6103ab610a6a565b6040516103b89190611b12565b60405180910390f35b6103db60048036038101906103d69190611de1565b610afc565b005b6103f760048036038101906103f29190611bcd565b610dd3565b005b610413600480360381019061040e9190611bcd565b610f94565b6040516104209190611c28565b60405180910390f35b610443600480360381019061043e9190611bcd565b61107e565b6040516104509190611c28565b60405180910390f35b610473600480360381019061046e9190611c43565b6110a1565b6040516104809190611e4d565b60405180910390f35b6104a3600480360381019061049e9190611c43565b61118e565b6040516104b09190611c92565b60405180910390f35b6104d360048036038101906104ce9190611c43565b611218565b6040516104e09190611c92565b60405180910390f35b61050360048036038101906104fe9190611c43565b61129f565b6040516105109190611c92565b60405180910390f35b60606009805461052890611e97565b80601f016020809104026020016040519081016040528092919081815260200182805461055490611e97565b80156105a15780601f10610576576101008083540402835291602001916105a1565b820191906000526020600020905b81548152906001019060200180831161058457829003601f168201915b5050505050905090565b6000806105b66112e9565b90506105c38185856112f1565b600191505092915050565b60006105da8383610648565b600e5460646105e9868661129f565b6105f39190611f27565b6105fd9190611f58565b6106079190611f58565b905092915050565b6000600854905090565b6000806106246112e9565b90506106318582856114bc565b61063c858585611548565b60019150509392505050565b6000603c42600c60008573ffffffffffffffffffffffffffffffffffffffff1673ffffffffffffffffffffffffffffffffffffffff16815260200190815260200160002060008673ffffffffffffffffffffffffffffffffffffffff1673ffffffffffffffffffffffffffffffffffffffff16815260200190815260200160002060020154600c60008673ffffffffffffffffffffffffffffffffffffffff1673ffffffffffffffffffffffffffffffffffffffff16815260200190815260200160002060008773ffffffffffffffffffffffffffffffffffffffff1673ffffffffffffffffffffffffffffffffffffffff168152602001908152602001600020600101546107579190611fb2565b6107619190611fe6565b4261076c9190611fb2565b6107769190611f27565b905092915050565b600c602052816000526040600020602052806000526040600020600091509150508060000154908060010154908060020154908060030154908060040154905085565b600b6020528060005260406000206000915054906101000a900473ffffffffffffffffffffffffffffffffffffffff1681565b600e5481565b60006012905090565b60008061080e6112e9565b90506108a2818585600760008673ffffffffffffffffffffffffffffffffffffffff1673ffffffffffffffffffffffffffffffffffffffff16815260200190815260200160002060008973ffffffffffffffffffffffffffffffffffffffff1673ffffffffffffffffffffffffffffffffffffffff1681526020019081526020016000205461089d9190611fe6565b6112f1565b600191505092915050565b60006108b982336105ce565b116108f9576040517f08c379a00000000000000000000000000000000000000000000000000000000081526004016108f090612088565b60405180910390fd5b61090381336117cc565b61098c33600c60003373ffffffffffffffffffffffffffffffffffffffff1673ffffffffffffffffffffffffffffffffffffffff16815260200190815260200160002060008473ffffffffffffffffffffffffffffffffffffffff1673ffffffffffffffffffffffffffffffffffffffff1681526020019081526020016000206004015461190e565b42600c60003373ffffffffffffffffffffffffffffffffffffffff1673ffffffffffffffffffffffffffffffffffffffff16815260200190815260200160002060008373ffffffffffffffffffffffffffffffffffffffff1673ffffffffffffffffffffffffffffffffffffffff1681526020019081526020016000206001018190555050565b6000600660008373ffffffffffffffffffffffffffffffffffffffff1673ffffffffffffffffffffffffffffffffffffffff168152602001908152602001600020549050919050565b610a66828261190e565b5050565b6060600a8054610a7990611e97565b80601f0160208091040260200160405190810160405280929190818152602001828054610aa590611e97565b8015610af25780601f10610ac757610100808354040283529160200191610af2565b820191906000526020600020905b815481529060010190602001808311610ad557829003601f168201915b5050505050905090565b8273ffffffffffffffffffffffffffffffffffffffff166323b872dd3330856040518463ffffffff167c0100000000000000000000000000000000000000000000000000000000028152600401610b55939291906120a8565b6020604051808303816000875af1158015610b74573d6000803e3d6000fd5b505050506040513d601f19601f82011682018060405250810190610b98919061210b565b5081600c60003373ffffffffffffffffffffffffffffffffffffffff1673ffffffffffffffffffffffffffffffffffffffff16815260200190815260200160002060008573ffffffffffffffffffffffffffffffffffffffff1673ffffffffffffffffffffffffffffffffffffffff1681526020019081526020016000206000016000828254610c289190611fe6565b9250508190555080600c60003373ffffffffffffffffffffffffffffffffffffffff1673ffffffffffffffffffffffffffffffffffffffff16815260200190815260200160002060008573ffffffffffffffffffffffffffffffffffffffff1673ffffffffffffffffffffffffffffffffffffffff168152602001908152602001600020600301819055506000600c60003373ffffffffffffffffffffffffffffffffffffffff1673ffffffffffffffffffffffffffffffffffffffff16815260200190815260200160002060008573ffffffffffffffffffffffffffffffffffffffff1673ffffffffffffffffffffffffffffffffffffffff1681526020019081526020016000206001015414610d4957610d4483336117cc565b610dce565b42600c60003373ffffffffffffffffffffffffffffffffffffffff1673ffffffffffffffffffffffffffffffffffffffff16815260200190815260200160002060008573ffffffffffffffffffffffffffffffffffffffff1673ffffffffffffffffffffffffffffffffffffffff168152602001908152602001600020600101819055505b505050565b80600c60003373ffffffffffffffffffffffffffffffffffffffff1673ffffffffffffffffffffffffffffffffffffffff16815260200190815260200160002060008473ffffffffffffffffffffffffffffffffffffffff1673ffffffffffffffffffffffffffffffffffffffff168152602001908152602001600020600001541015610e5f57600080fd5b8173ffffffffffffffffffffffffffffffffffffffff1663a9059cbb33836040518363ffffffff167c0100000000000000000000000000000000000000000000000000000000028152600401610eb6929190612138565b6020604051808303816000875af1158015610ed5573d6000803e3d6000fd5b505050506040513d601f19601f82011682018060405250810190610ef9919061210b565b5080600c60003373ffffffffffffffffffffffffffffffffffffffff1673ffffffffffffffffffffffffffffffffffffffff16815260200190815260200160002060008473ffffffffffffffffffffffffffffffffffffffff1673ffffffffffffffffffffffffffffffffffffffff1681526020019081526020016000206000016000828254610f899190611fb2565b925050819055505050565b600080610f9f6112e9565b90506000600760008373ffffffffffffffffffffffffffffffffffffffff1673ffffffffffffffffffffffffffffffffffffffff16815260200190815260200160002060008673ffffffffffffffffffffffffffffffffffffffff1673ffffffffffffffffffffffffffffffffffffffff16815260200190815260200160002054905083811015611065576040517f08c379a000000000000000000000000000000000000000000000000000000000815260040161105c906121d3565b60405180910390fd5b61107282868684036112f1565b60019250505092915050565b6000806110896112e9565b9050611096818585611548565b600191505092915050565b6000806000806000806000600d60009054906101000a900473ffffffffffffffffffffffffffffffffffffffff1673ffffffffffffffffffffffffffffffffffffffff1663bcfd032d8a8a6040518363ffffffff167c01000000000000000000000000000000000000000000000000000000000281526004016111259291906121f3565b60a060405180830381865afa158015611142573d6000803e3d6000fd5b505050506040513d601f19601f82011682018060405250810190611166919061229f565b945094509450945094506305f5e10084611180919061231a565b965050505050505092915050565b6000600c60008373ffffffffffffffffffffffffffffffffffffffff1673ffffffffffffffffffffffffffffffffffffffff16815260200190815260200160002060008473ffffffffffffffffffffffffffffffffffffffff1673ffffffffffffffffffffffffffffffffffffffff16815260200190815260200160002060000154905092915050565b6000600760008473ffffffffffffffffffffffffffffffffffffffff1673ffffffffffffffffffffffffffffffffffffffff16815260200190815260200160002060008373ffffffffffffffffffffffffffffffffffffffff1673ffffffffffffffffffffffffffffffffffffffff16815260200190815260200160002054905092915050565b60006112cd83600f60009054906101000a900473ffffffffffffffffffffffffffffffffffffffff166110a1565b6112d7848461118e565b6112e19190611f58565b905092915050565b600033905090565b600073ffffffffffffffffffffffffffffffffffffffff168373ffffffffffffffffffffffffffffffffffffffff161415611361576040517f08c379a0000000000000000000000000000000000000000000000000000000008152600401611358906123f6565b60405180910390fd5b600073ffffffffffffffffffffffffffffffffffffffff168273ffffffffffffffffffffffffffffffffffffffff1614156113d1576040517f08c379a00000000000000000000000000000000000000000000000000000000081526004016113c890612488565b60405180910390fd5b80600760008573ffffffffffffffffffffffffffffffffffffffff1673ffffffffffffffffffffffffffffffffffffffff16815260200190815260200160002060008473ffffffffffffffffffffffffffffffffffffffff1673ffffffffffffffffffffffffffffffffffffffff168152602001908152602001600020819055508173ffffffffffffffffffffffffffffffffffffffff168373ffffffffffffffffffffffffffffffffffffffff167f8c5be1e5ebec7d5bd14f71427d1e84f3dd0314c0f7b2291e5b200ac8c7c3b925836040516114af9190611c92565b60405180910390a3505050565b60006114c88484611218565b90507fffffffffffffffffffffffffffffffffffffffffffffffffffffffffffffffff81146115425781811015611534576040517f08c379a000000000000000000000000000000000000000000000000000000000815260040161152b906124f4565b60405180910390fd5b61154184848484036112f1565b5b50505050565b600073ffffffffffffffffffffffffffffffffffffffff168373ffffffffffffffffffffffffffffffffffffffff1614156115b8576040517f08c379a00000000000000000000000000000000000000000000000000000000081526004016115af90612586565b60405180910390fd5b600073ffffffffffffffffffffffffffffffffffffffff168273ffffffffffffffffffffffffffffffffffffffff161415611628576040517f08c379a000000000000000000000000000000000000000000000000000000000815260040161161f90612618565b60405180910390fd5b611633838383611a6f565b6000600660008573ffffffffffffffffffffffffffffffffffffffff1673ffffffffffffffffffffffffffffffffffffffff168152602001908152602001600020549050818110156116ba576040517f08c379a00000000000000000000000000000000000000000000000000000000081526004016116b1906126aa565b60405180910390fd5b818103600660008673ffffffffffffffffffffffffffffffffffffffff1673ffffffffffffffffffffffffffffffffffffffff1681526020019081526020016000208190555081600660008573ffffffffffffffffffffffffffffffffffffffff1673ffffffffffffffffffffffffffffffffffffffff168152602001908152602001600020600082825461174f9190611fe6565b925050819055508273ffffffffffffffffffffffffffffffffffffffff168473ffffffffffffffffffffffffffffffffffffffff167fddf252ad1be2c89b69c2b068fc378daa952ba7f163c4a11628f55a4df523b3ef846040516117b39190611c92565b60405180910390a36117c6848484611a74565b50505050565b6117d68282610648565b600e5460646117e5858561129f565b6117ef9190611f27565b6117f99190611f58565b6118039190611f58565b600c60003373ffffffffffffffffffffffffffffffffffffffff1673ffffffffffffffffffffffffffffffffffffffff16815260200190815260200160002060008473ffffffffffffffffffffffffffffffffffffffff1673ffffffffffffffffffffffffffffffffffffffff1681526020019081526020016000206004018190555042600c60008373ffffffffffffffffffffffffffffffffffffffff1673ffffffffffffffffffffffffffffffffffffffff16815260200190815260200160002060008473ffffffffffffffffffffffffffffffffffffffff1673ffffffffffffffffffffffffffffffffffffffff168152602001908152602001600020600201819055505050565b600073ffffffffffffffffffffffffffffffffffffffff168273ffffffffffffffffffffffffffffffffffffffff16141561197e576040517f08c379a000000000000000000000000000000000000000000000000000000000815260040161197590612716565b60405180910390fd5b61198a60008383611a6f565b806008600082825461199c9190611fe6565b9250508190555080600660008473ffffffffffffffffffffffffffffffffffffffff1673ffffffffffffffffffffffffffffffffffffffff16815260200190815260200160002060008282546119f29190611fe6565b925050819055508173ffffffffffffffffffffffffffffffffffffffff16600073ffffffffffffffffffffffffffffffffffffffff167fddf252ad1be2c89b69c2b068fc378daa952ba7f163c4a11628f55a4df523b3ef83604051611a579190611c92565b60405180910390a3611a6b60008383611a74565b5050565b505050565b505050565b600081519050919050565b600082825260208201905092915050565b60005b83811015611ab3578082015181840152602081019050611a98565b83811115611ac2576000848401525b50505050565b6000601f19601f8301169050919050565b6000611ae482611a79565b611aee8185611a84565b9350611afe818560208601611a95565b611b0781611ac8565b840191505092915050565b60006020820190508181036000830152611b2c8184611ad9565b905092915050565b600080fd5b600073ffffffffffffffffffffffffffffffffffffffff82169050919050565b6000611b6482611b39565b9050919050565b611b7481611b59565b8114611b7f57600080fd5b50565b600081359050611b9181611b6b565b92915050565b6000819050919050565b611baa81611b97565b8114611bb557600080fd5b50565b600081359050611bc781611ba1565b92915050565b60008060408385031215611be457611be3611b34565b5b6000611bf285828601611b82565b9250506020611c0385828601611bb8565b9150509250929050565b60008115159050919050565b611c2281611c0d565b82525050565b6000602082019050611c3d6000830184611c19565b92915050565b60008060408385031215611c5a57611c59611b34565b5b6000611c6885828601611b82565b9250506020611c7985828601611b82565b9150509250929050565b611c8c81611b97565b82525050565b6000602082019050611ca76000830184611c83565b92915050565b600080600060608486031215611cc657611cc5611b34565b5b6000611cd486828701611b82565b9350506020611ce586828701611b82565b9250506040611cf686828701611bb8565b9150509250925092565b600060a082019050611d156000830188611c83565b611d226020830187611c83565b611d2f6040830186611c83565b611d3c6060830185611c83565b611d496080830184611c83565b9695505050505050565b600060208284031215611d6957611d68611b34565b5b6000611d7784828501611b82565b91505092915050565b611d8981611b59565b82525050565b6000602082019050611da46000830184611d80565b92915050565b600060ff82169050919050565b611dc081611daa565b82525050565b6000602082019050611ddb6000830184611db7565b92915050565b600080600060608486031215611dfa57611df9611b34565b5b6000611e0886828701611b82565b9350506020611e1986828701611bb8565b9250506040611e2a86828701611bb8565b9150509250925092565b6000819050919050565b611e4781611e34565b82525050565b6000602082019050611e626000830184611e3e565b92915050565b7f4e487b7100000000000000000000000000000000000000000000000000000000600052602260045260246000fd5b60006002820490506001821680611eaf57607f821691505b60208210811415611ec357611ec2611e68565b5b50919050565b7f4e487b7100000000000000000000000000000000000000000000000000000000600052601260045260246000fd5b7f4e487b7100000000000000000000000000000000000000000000000000000000600052601160045260246000fd5b6000611f3282611b97565b9150611f3d83611b97565b925082611f4d57611f4c611ec9565b5b828204905092915050565b6000611f6382611b97565b9150611f6e83611b97565b9250817fffffffffffffffffffffffffffffffffffffffffffffffffffffffffffffffff0483118215151615611fa757611fa6611ef8565b5b828202905092915050565b6000611fbd82611b97565b9150611fc883611b97565b925082821015611fdb57611fda611ef8565b5b828203905092915050565b6000611ff182611b97565b9150611ffc83611b97565b9250827fffffffffffffffffffffffffffffffffffffffffffffffffffffffffffffffff0382111561203157612030611ef8565b5b828201905092915050565b7f4e6f7468696e6720746f2072656564656d000000000000000000000000000000600082015250565b6000612072601183611a84565b915061207d8261203c565b602082019050919050565b600060208201905081810360008301526120a181612065565b9050919050565b60006060820190506120bd6000830186611d80565b6120ca6020830185611d80565b6120d76040830184611c83565b949350505050565b6120e881611c0d565b81146120f357600080fd5b50565b600081519050612105816120df565b92915050565b60006020828403121561212157612120611b34565b5b600061212f848285016120f6565b91505092915050565b600060408201905061214d6000830185611d80565b61215a6020830184611c83565b9392505050565b7f45524332303a2064656372656173656420616c6c6f77616e63652062656c6f7760008201527f207a65726f000000000000000000000000000000000000000000000000000000602082015250565b60006121bd602583611a84565b91506121c882612161565b604082019050919050565b600060208201905081810360008301526121ec816121b0565b9050919050565b60006040820190506122086000830185611d80565b6122156020830184611d80565b9392505050565b600069ffffffffffffffffffff82169050919050565b61223b8161221c565b811461224657600080fd5b50565b60008151905061225881612232565b92915050565b61226781611e34565b811461227257600080fd5b50565b6000815190506122848161225e565b92915050565b60008151905061229981611ba1565b92915050565b600080600080600060a086880312156122bb576122ba611b34565b5b60006122c988828901612249565b95505060206122da88828901612275565b94505060406122eb8882890161228a565b93505060606122fc8882890161228a565b925050608061230d88828901612249565b9150509295509295909350565b600061232582611e34565b915061233083611e34565b9250826123405761233f611ec9565b5b600160000383147f80000000000000000000000000000000000000000000000000000000000000008314161561237957612378611ef8565b5b828205905092915050565b7f45524332303a20617070726f76652066726f6d20746865207a65726f2061646460008201527f7265737300000000000000000000000000000000000000000000000000000000602082015250565b60006123e0602483611a84565b91506123eb82612384565b604082019050919050565b6000602082019050818103600083015261240f816123d3565b9050919050565b7f45524332303a20617070726f766520746f20746865207a65726f20616464726560008201527f7373000000000000000000000000000000000000000000000000000000000000602082015250565b6000612472602283611a84565b915061247d82612416565b604082019050919050565b600060208201905081810360008301526124a181612465565b9050919050565b7f45524332303a20696e73756666696369656e7420616c6c6f77616e6365000000600082015250565b60006124de601d83611a84565b91506124e9826124a8565b602082019050919050565b6000602082019050818103600083015261250d816124d1565b9050919050565b7f45524332303a207472616e736665722066726f6d20746865207a65726f20616460008201527f6472657373000000000000000000000000000000000000000000000000000000602082015250565b6000612570602583611a84565b915061257b82612514565b604082019050919050565b6000602082019050818103600083015261259f81612563565b9050919050565b7f45524332303a207472616e7366657220746f20746865207a65726f206164647260008201527f6573730000000000000000000000000000000000000000000000000000000000602082015250565b6000612602602383611a84565b915061260d826125a6565b604082019050919050565b60006020820190508181036000830152612631816125f5565b9050919050565b7f45524332303a207472616e7366657220616d6f756e742065786365656473206260008201527f616c616e63650000000000000000000000000000000000000000000000000000602082015250565b6000612694602683611a84565b915061269f82612638565b604082019050919050565b600060208201905081810360008301526126c381612687565b9050919050565b7f45524332303a206d696e7420746f20746865207a65726f206164647265737300600082015250565b6000612700601f83611a84565b915061270b826126ca565b602082019050919050565b6000602082019050818103600083015261272f816126f3565b905091905056fea264697066735822122037a7d01a063174aa95b76e7ff2a51561150a28d873b51e12293516609c4b5d2164736f6c634300080c0033",
  "immutableReferences": {},
  "source": "pragma solidity 0.8.12;\r\n\r\nimport \"@openzeppelin/contracts/token/ERC20/IERC20.sol\";\r\nimport \"@chainlink/contracts/src/v0.8/interfaces/AggregatorV3Interface.sol\";\r\nimport \"@chainlink/contracts/src/v0.8/ChainlinkClient.sol\";\r\nimport \"@chainlink/contracts/src/v0.8/interfaces/FeedRegistryInterface.sol\";\r\nimport \"./Rec.sol\";\r\n\r\ncontract StackingCore is ChainlinkClient, Rec {\r\n    struct Stacker {\r\n        uint256 balance;\r\n        uint256 DepositTime;\r\n        uint256 LastUpdateTime;\r\n        uint256 decimals;\r\n        uint256 reward;\r\n    }\r\n\r\n    mapping(address => address) public tokenPriceFeedMapping;\r\n    mapping(address => mapping(address => Stacker)) public stacker;\r\n\r\n    FeedRegistryInterface internal registry;\r\n    uint256 public rate = 1;\r\n    address USD = 0x0000000000000000000000000000000000000348;\r\n\r\n    constructor(address _registry) {\r\n        registry = FeedRegistryInterface(_registry);\r\n    }\r\n\r\n    function depositToken(\r\n        address _token,\r\n        uint256 _amount,\r\n        uint256 _decimals\r\n    ) public {\r\n        IERC20(_token).transferFrom(msg.sender, address(this), _amount);\r\n        stacker[msg.sender][_token].balance += _amount;\r\n        stacker[msg.sender][_token].decimals = _decimals;\r\n        if (stacker[msg.sender][_token].DepositTime != uint256(0)) {\r\n            updateReward(_token, msg.sender);\r\n        } else {\r\n            stacker[msg.sender][_token].DepositTime = block.timestamp;\r\n        }\r\n    }\r\n\r\n    function withdrawToken(address _token, uint256 _amount) public {\r\n        require(stacker[msg.sender][_token].balance >= _amount);\r\n        IERC20(_token).transfer(msg.sender, _amount);\r\n        stacker[msg.sender][_token].balance -= _amount;\r\n    }\r\n\r\n    function getRewardValue(address _token, address _user)\r\n        public\r\n        view\r\n        returns (uint256)\r\n    {\r\n        return\r\n            ((getBalanceValue(_token, _user) / 100) * rate) *\r\n            getTimeStamp(_token, _user);\r\n    }\r\n\r\n    function getBalanceValue(address _token, address _user)\r\n        public\r\n        view\r\n        returns (uint256)\r\n    {\r\n        return ((getBalance(_token, _user) * uint256(getPrice(_token, USD))));\r\n    }\r\n\r\n    function getTimeStamp(address _token, address _user)\r\n        public\r\n        view\r\n        returns (uint256)\r\n    {\r\n        return\r\n            (block.timestamp -\r\n                ((stacker[_user][_token].DepositTime -\r\n                    stacker[_user][_token].LastUpdateTime) + block.timestamp)) /\r\n            60;\r\n    }\r\n\r\n    function updateReward(address _token, address _user) internal {\r\n        stacker[msg.sender][_token].reward =\r\n            ((getBalanceValue(_token, _user) / 100) * rate) *\r\n            getTimeStamp(_token, _user);\r\n        stacker[_user][_token].LastUpdateTime = block.timestamp;\r\n    }\r\n\r\n    function reedemReward(address _token) public {\r\n        require(getRewardValue(_token, msg.sender) > 0, \"Nothing to reedem\");\r\n        updateReward(_token, msg.sender);\r\n        _mint(msg.sender, stacker[msg.sender][_token].reward);\r\n        stacker[msg.sender][_token].DepositTime = block.timestamp;\r\n    }\r\n\r\n    function getBalance(address _token, address _user)\r\n        public\r\n        view\r\n        returns (uint256)\r\n    {\r\n        return stacker[_user][_token].balance;\r\n    }\r\n\r\n    function getPrice(address base, address quote)\r\n        public\r\n        view\r\n        returns (int256)\r\n    {\r\n        int8 decimals;\r\n        (\r\n            uint80 roundID,\r\n            int256 price,\r\n            uint256 startedAt,\r\n            uint256 timeStamp,\r\n            uint80 answeredInRound\r\n        ) = registry.latestRoundData(base, quote);\r\n        return price / 10**8;\r\n    }\r\n}\r\n",
  "sourcePath": "E:\\Programation\\Alyra\\Defi-4\\contracts\\StackingCore.sol",
  "compiler": {
    "name": "solc",
    "version": "0.8.12+commit.f00d7308.Emscripten.clang"
  },
  "schemaVersion": "3.4.3",
  "updatedAt": "2022-03-29T12:31:56.603Z",
  "networkType": "ethereum",
  "devdoc": {
    "kind": "dev",
    "methods": {
      "allowance(address,address)": {
        "details": "See {IERC20-allowance}."
      },
      "approve(address,uint256)": {
        "details": "See {IERC20-approve}. NOTE: If `amount` is the maximum `uint256`, the allowance is not updated on `transferFrom`. This is semantically equivalent to an infinite approval. Requirements: - `spender` cannot be the zero address."
      },
      "balanceOf(address)": {
        "details": "See {IERC20-balanceOf}."
      },
      "decimals()": {
        "details": "Returns the number of decimals used to get its user representation. For example, if `decimals` equals `2`, a balance of `505` tokens should be displayed to a user as `5.05` (`505 / 10 ** 2`). Tokens usually opt for a value of 18, imitating the relationship between Ether and Wei. This is the value {ERC20} uses, unless this function is overridden; NOTE: This information is only used for _display_ purposes: it in no way affects any of the arithmetic of the contract, including {IERC20-balanceOf} and {IERC20-transfer}."
      },
      "decreaseAllowance(address,uint256)": {
        "details": "Atomically decreases the allowance granted to `spender` by the caller. This is an alternative to {approve} that can be used as a mitigation for problems described in {IERC20-approve}. Emits an {Approval} event indicating the updated allowance. Requirements: - `spender` cannot be the zero address. - `spender` must have allowance for the caller of at least `subtractedValue`."
      },
      "increaseAllowance(address,uint256)": {
        "details": "Atomically increases the allowance granted to `spender` by the caller. This is an alternative to {approve} that can be used as a mitigation for problems described in {IERC20-approve}. Emits an {Approval} event indicating the updated allowance. Requirements: - `spender` cannot be the zero address."
      },
      "name()": {
        "details": "Returns the name of the token."
      },
      "symbol()": {
        "details": "Returns the symbol of the token, usually a shorter version of the name."
      },
      "totalSupply()": {
        "details": "See {IERC20-totalSupply}."
      },
      "transfer(address,uint256)": {
        "details": "See {IERC20-transfer}. Requirements: - `to` cannot be the zero address. - the caller must have a balance of at least `amount`."
      },
      "transferFrom(address,address,uint256)": {
        "details": "See {IERC20-transferFrom}. Emits an {Approval} event indicating the updated allowance. This is not required by the EIP. See the note at the beginning of {ERC20}. NOTE: Does not update the allowance if the current allowance is the maximum `uint256`. Requirements: - `from` and `to` cannot be the zero address. - `from` must have a balance of at least `amount`. - the caller must have allowance for ``from``'s tokens of at least `amount`."
      }
    },
    "version": 1
  },
  "userdoc": {
    "kind": "user",
    "methods": {},
    "version": 1
  }
}