{
  "contractName": "stakingCore",
  "abi": [
    {
      "inputs": [
        {
          "internalType": "address",
          "name": "_recTokenAddress",
          "type": "address"
        }
      ],
      "stateMutability": "nonpayable",
      "type": "constructor"
    },
    {
      "anonymous": false,
      "inputs": [
        {
          "indexed": true,
          "internalType": "bytes32",
          "name": "id",
          "type": "bytes32"
        }
      ],
      "name": "ChainlinkCancelled",
      "type": "event"
    },
    {
      "anonymous": false,
      "inputs": [
        {
          "indexed": true,
          "internalType": "bytes32",
          "name": "id",
          "type": "bytes32"
        }
      ],
      "name": "ChainlinkFulfilled",
      "type": "event"
    },
    {
      "anonymous": false,
      "inputs": [
        {
          "indexed": true,
          "internalType": "bytes32",
          "name": "id",
          "type": "bytes32"
        }
      ],
      "name": "ChainlinkRequested",
      "type": "event"
    },
    {
      "anonymous": false,
      "inputs": [
        {
          "indexed": false,
          "internalType": "address",
          "name": "from",
          "type": "address"
        },
        {
          "indexed": false,
          "internalType": "uint256",
          "name": "value",
          "type": "uint256"
        }
      ],
      "name": "onDeposit",
      "type": "event"
    },
    {
      "stateMutability": "payable",
      "type": "fallback",
      "payable": true
    },
    {
      "inputs": [],
      "name": "recToken",
      "outputs": [
        {
          "internalType": "contract IERC20",
          "name": "",
          "type": "address"
        }
      ],
      "stateMutability": "view",
      "type": "function",
      "constant": true
    },
    {
      "inputs": [
        {
          "internalType": "address",
          "name": "",
          "type": "address"
        }
      ],
      "name": "tokenPriceFeedMapping",
      "outputs": [
        {
          "internalType": "address",
          "name": "",
          "type": "address"
        }
      ],
      "stateMutability": "view",
      "type": "function",
      "constant": true
    },
    {
      "inputs": [
        {
          "internalType": "uint256",
          "name": "_amount",
          "type": "uint256"
        },
        {
          "internalType": "address",
          "name": "_tokenAddress",
          "type": "address"
        }
      ],
      "name": "stakeERC20",
      "outputs": [],
      "stateMutability": "nonpayable",
      "type": "function"
    },
    {
      "inputs": [
        {
          "internalType": "address",
          "name": "_address",
          "type": "address"
        },
        {
          "internalType": "address",
          "name": "_token",
          "type": "address"
        }
      ],
      "name": "balanceOf",
      "outputs": [
        {
          "internalType": "uint256",
          "name": "",
          "type": "uint256"
        }
      ],
      "stateMutability": "view",
      "type": "function",
      "constant": true
    },
    {
      "inputs": [],
      "name": "getBalance",
      "outputs": [
        {
          "internalType": "uint256",
          "name": "",
          "type": "uint256"
        }
      ],
      "stateMutability": "view",
      "type": "function",
      "constant": true
    },
    {
      "inputs": [
        {
          "internalType": "address",
          "name": "user",
          "type": "address"
        },
        {
          "internalType": "address",
          "name": "token",
          "type": "address"
        }
      ],
      "name": "getUserStakingBalanceEthValue",
      "outputs": [
        {
          "internalType": "uint256",
          "name": "",
          "type": "uint256"
        }
      ],
      "stateMutability": "view",
      "type": "function",
      "constant": true
    },
    {
      "inputs": [
        {
          "internalType": "address",
          "name": "token",
          "type": "address"
        }
      ],
      "name": "getTokenEthPrice",
      "outputs": [
        {
          "internalType": "uint256",
          "name": "",
          "type": "uint256"
        }
      ],
      "stateMutability": "view",
      "type": "function",
      "constant": true
    }
  ],
  "bytecode": "0x6080604052600160045534801561001557600080fd5b50604051610c47380380610c47833981810160405281019061003791906100e1565b80600660006101000a81548173ffffffffffffffffffffffffffffffffffffffff021916908373ffffffffffffffffffffffffffffffffffffffff1602179055505061010e565b600080fd5b600073ffffffffffffffffffffffffffffffffffffffff82169050919050565b60006100ae82610083565b9050919050565b6100be816100a3565b81146100c957600080fd5b50565b6000815190506100db816100b5565b92915050565b6000602082840312156100f7576100f661007e565b5b6000610105848285016100cc565b91505092915050565b610b2a8061011d6000396000f3fe608060405260043610610091576000357c010000000000000000000000000000000000000000000000000000000090048063df00018d1161006b578063df00018d14610139578063eba9c2a514610176578063efa545a91461019f578063f7888aec146101ca57610092565b806312065fe01461009457806327927b3e146100bf578063cc81e060146100fc57610092565b5b005b3480156100a057600080fd5b506100a9610207565b6040516100b69190610616565b60405180910390f35b3480156100cb57600080fd5b506100e660048036038101906100e19190610694565b610226565b6040516100f391906106d0565b60405180910390f35b34801561010857600080fd5b50610123600480360381019061011e91906106eb565b610259565b6040516101309190610616565b60405180910390f35b34801561014557600080fd5b50610160600480360381019061015b9190610694565b610306565b60405161016d9190610616565b60405180910390f35b34801561018257600080fd5b5061019d60048036038101906101989190610757565b61041c565b005b3480156101ab57600080fd5b506101b4610550565b6040516101c191906107f6565b60405180910390f35b3480156101d657600080fd5b506101f160048036038101906101ec91906106eb565b610576565b6040516101fe9190610616565b60405180910390f35b60003073ffffffffffffffffffffffffffffffffffffffff1631905090565b600c6020528060005260406000206000915054906101000a900473ffffffffffffffffffffffffffffffffffffffff1681565b6000670de0b6b3a764000061026d83610306565b600860008573ffffffffffffffffffffffffffffffffffffffff1673ffffffffffffffffffffffffffffffffffffffff16815260200190815260200160002060008673ffffffffffffffffffffffffffffffffffffffff1673ffffffffffffffffffffffffffffffffffffffff168152602001908152602001600020546102f49190610840565b6102fe91906108c9565b905092915050565b600080600c60008473ffffffffffffffffffffffffffffffffffffffff1673ffffffffffffffffffffffffffffffffffffffff16815260200190815260200160002060009054906101000a900473ffffffffffffffffffffffffffffffffffffffff169050600081905060008060008060008573ffffffffffffffffffffffffffffffffffffffff1663feaf968c6040518163ffffffff167c010000000000000000000000000000000000000000000000000000000002815260040160a060405180830381865afa1580156103df573d6000803e3d6000fd5b505050506040513d601f19601f820116820180604052508101906104039190610987565b9450945094509450945083975050505050505050919050565b8073ffffffffffffffffffffffffffffffffffffffff166323b872dd3330856040518463ffffffff167c010000000000000000000000000000000000000000000000000000000002815260040161047593929190610a02565b6020604051808303816000875af1158015610494573d6000803e3d6000fd5b505050506040513d601f19601f820116820180604052508101906104b89190610a71565b5081600860003373ffffffffffffffffffffffffffffffffffffffff1673ffffffffffffffffffffffffffffffffffffffff16815260200190815260200160002060008373ffffffffffffffffffffffffffffffffffffffff1673ffffffffffffffffffffffffffffffffffffffff16815260200190815260200160002060008282546105459190610a9e565b925050819055505050565b600660009054906101000a900473ffffffffffffffffffffffffffffffffffffffff1681565b6000600860008473ffffffffffffffffffffffffffffffffffffffff1673ffffffffffffffffffffffffffffffffffffffff16815260200190815260200160002060008373ffffffffffffffffffffffffffffffffffffffff1673ffffffffffffffffffffffffffffffffffffffff16815260200190815260200160002054905092915050565b6000819050919050565b610610816105fd565b82525050565b600060208201905061062b6000830184610607565b92915050565b600080fd5b600073ffffffffffffffffffffffffffffffffffffffff82169050919050565b600061066182610636565b9050919050565b61067181610656565b811461067c57600080fd5b50565b60008135905061068e81610668565b92915050565b6000602082840312156106aa576106a9610631565b5b60006106b88482850161067f565b91505092915050565b6106ca81610656565b82525050565b60006020820190506106e560008301846106c1565b92915050565b6000806040838503121561070257610701610631565b5b60006107108582860161067f565b92505060206107218582860161067f565b9150509250929050565b610734816105fd565b811461073f57600080fd5b50565b6000813590506107518161072b565b92915050565b6000806040838503121561076e5761076d610631565b5b600061077c85828601610742565b925050602061078d8582860161067f565b9150509250929050565b6000819050919050565b60006107bc6107b76107b284610636565b610797565b610636565b9050919050565b60006107ce826107a1565b9050919050565b60006107e0826107c3565b9050919050565b6107f0816107d5565b82525050565b600060208201905061080b60008301846107e7565b92915050565b7f4e487b7100000000000000000000000000000000000000000000000000000000600052601160045260246000fd5b600061084b826105fd565b9150610856836105fd565b9250817fffffffffffffffffffffffffffffffffffffffffffffffffffffffffffffffff048311821515161561088f5761088e610811565b5b828202905092915050565b7f4e487b7100000000000000000000000000000000000000000000000000000000600052601260045260246000fd5b60006108d4826105fd565b91506108df836105fd565b9250826108ef576108ee61089a565b5b828204905092915050565b600069ffffffffffffffffffff82169050919050565b610919816108fa565b811461092457600080fd5b50565b60008151905061093681610910565b92915050565b6000819050919050565b61094f8161093c565b811461095a57600080fd5b50565b60008151905061096c81610946565b92915050565b6000815190506109818161072b565b92915050565b600080600080600060a086880312156109a3576109a2610631565b5b60006109b188828901610927565b95505060206109c28882890161095d565b94505060406109d388828901610972565b93505060606109e488828901610972565b92505060806109f588828901610927565b9150509295509295909350565b6000606082019050610a1760008301866106c1565b610a2460208301856106c1565b610a316040830184610607565b949350505050565b60008115159050919050565b610a4e81610a39565b8114610a5957600080fd5b50565b600081519050610a6b81610a45565b92915050565b600060208284031215610a8757610a86610631565b5b6000610a9584828501610a5c565b91505092915050565b6000610aa9826105fd565b9150610ab4836105fd565b9250827fffffffffffffffffffffffffffffffffffffffffffffffffffffffffffffffff03821115610ae957610ae8610811565b5b82820190509291505056fea26469706673582212200258313c0b3b8dae1f9c936274e4003b138f0b8d91a0db75ce30ab0ffe34c25a64736f6c634300080c0033",
  "immutableReferences": {},
  "source": "pragma solidity 0.8.12;\r\n\r\nimport \"@openzeppelin/contracts/utils/math/SafeMath.sol\";\r\nimport \"@openzeppelin/contracts/token/ERC20/utils/SafeERC20.sol\";\r\nimport \"@chainlink/contracts/src/v0.8/interfaces/AggregatorV3Interface.sol\";\r\nimport \"@chainlink/contracts/src/v0.8/ChainlinkClient.sol\";\r\nimport \"@openzeppelin/contracts/token/ERC20/IERC20.sol\";\r\nimport \"./Rec.sol\";\r\n\r\ncontract stakingCore is ChainlinkClient {\r\n    using SafeMath for uint256;\r\n    IERC20 public recToken;\r\n    Rec rec;\r\n    // AggregatorV3Interface internal priceFeed;\r\n    mapping(address => mapping(address => uint256)) private balance;\r\n    mapping(address => uint256) private depositTime;\r\n    mapping(address => uint256) private lastRewardTime;\r\n    mapping(address => uint256) private rewardValue;\r\n    mapping(address => address) public tokenPriceFeedMapping;\r\n\r\n    event onDeposit(address from, uint256 value);\r\n\r\n    constructor(address _recTokenAddress) public {\r\n        recToken = IERC20(_recTokenAddress);\r\n        // priceFeed = AggregatorV3Interface(\r\n        //     0x9326BFA02ADD2366b30bacB125260Af641031331\r\n        // );\r\n    }\r\n\r\n    // receive() external payable {\r\n    //     balance[msg.sender] += msg.value;\r\n    //     depositTime[msg.sender] = block.timestamp;\r\n    //     emit onDeposit(msg.sender, msg.value);\r\n    // }\r\n\r\n    function stakeERC20(uint256 _amount, address _tokenAddress) public {\r\n        IERC20(_tokenAddress).transferFrom(msg.sender, address(this), _amount);\r\n        balance[msg.sender][_tokenAddress] += _amount;\r\n    }\r\n\r\n    // function withdrawMoney(uint256 value) public {\r\n    //     require(value <= balance[msg.sender], \"You don't enougth money\");\r\n    //     address payable to = payable(msg.sender);\r\n    //     balance[msg.sender] -= value;\r\n    //     to.transfer(value);\r\n    // }\r\n\r\n    function reward(address _address) private {\r\n        require(\r\n            lastRewardTime[_address] >= lastRewardTime[_address] + 24 hours,\r\n            \"Not enought time spent\"\r\n        );\r\n        //  rec.mint(val, _address);\r\n        lastRewardTime[_address] = block.timestamp;\r\n    }\r\n\r\n    function balanceOf(address _address, address _token)\r\n        public\r\n        view\r\n        returns (uint256)\r\n    {\r\n        return balance[_address][_token];\r\n    }\r\n\r\n    function getBalance() public view returns (uint256) {\r\n        return address(this).balance;\r\n    }\r\n\r\n    function getUserStakingBalanceEthValue(address user, address token)\r\n        public\r\n        view\r\n        returns (uint256)\r\n    {\r\n        return (balance[token][user] * getTokenEthPrice(token)) / (10**18);\r\n    }\r\n\r\n    function getTokenEthPrice(address token) public view returns (uint256) {\r\n        address priceFeedAddress = tokenPriceFeedMapping[token];\r\n        AggregatorV3Interface priceFeed = AggregatorV3Interface(\r\n            priceFeedAddress\r\n        );\r\n        (\r\n            uint80 roundID,\r\n            int256 price,\r\n            uint256 startedAt,\r\n            uint256 timeStamp,\r\n            uint80 answeredInRound\r\n        ) = priceFeed.latestRoundData();\r\n        return uint256(price);\r\n    }\r\n\r\n    fallback() external payable {}\r\n}\r\n",
  "sourcePath": "C:\\Users\\Tristan\\Desktop\\ALyra\\Defi-4\\contracts\\StakingCore.sol",
  "compiler": {
    "name": "solc",
    "version": "0.8.12+commit.f00d7308.Emscripten.clang"
  },
  "schemaVersion": "3.4.4",
  "updatedAt": "2022-03-12T17:51:32.757Z",
  "networkType": "ethereum",
  "devdoc": {
    "kind": "dev",
    "methods": {},
    "version": 1
  },
  "userdoc": {
    "kind": "user",
    "methods": {},
    "version": 1
  }
}