{
  "contractName": "stakingCore",
  "abi": [
    {
      "inputs": [
        {
          "internalType": "address",
          "name": "_recTokenAddress",
          "type": "address"
        }
      ],
      "stateMutability": "nonpayable",
      "type": "constructor"
    },
    {
      "anonymous": false,
      "inputs": [
        {
          "indexed": false,
          "internalType": "address",
          "name": "from",
          "type": "address"
        },
        {
          "indexed": false,
          "internalType": "uint256",
          "name": "value",
          "type": "uint256"
        }
      ],
      "name": "onDeposit",
      "type": "event"
    },
    {
      "stateMutability": "payable",
      "type": "fallback",
      "payable": true
    },
    {
      "inputs": [],
      "name": "recToken",
      "outputs": [
        {
          "internalType": "contract IERC20",
          "name": "",
          "type": "address"
        }
      ],
      "stateMutability": "view",
      "type": "function",
      "constant": true
    },
    {
      "inputs": [
        {
          "internalType": "address",
          "name": "",
          "type": "address"
        }
      ],
      "name": "tokenPriceFeedMapping",
      "outputs": [
        {
          "internalType": "address",
          "name": "",
          "type": "address"
        }
      ],
      "stateMutability": "view",
      "type": "function",
      "constant": true
    },
    {
      "stateMutability": "payable",
      "type": "receive",
      "payable": true
    },
    {
      "inputs": [
        {
          "internalType": "uint256",
          "name": "_amount",
          "type": "uint256"
        },
        {
          "internalType": "address",
          "name": "_tokenAddress",
          "type": "address"
        }
      ],
      "name": "stakeERC20",
      "outputs": [],
      "stateMutability": "nonpayable",
      "type": "function"
    },
    {
      "inputs": [
        {
          "internalType": "uint256",
          "name": "value",
          "type": "uint256"
        }
      ],
      "name": "withdrawMoney",
      "outputs": [],
      "stateMutability": "nonpayable",
      "type": "function"
    },
    {
      "inputs": [
        {
          "internalType": "address",
          "name": "_address",
          "type": "address"
        }
      ],
      "name": "balanceOf",
      "outputs": [
        {
          "internalType": "uint256",
          "name": "",
          "type": "uint256"
        }
      ],
      "stateMutability": "view",
      "type": "function",
      "constant": true
    },
    {
      "inputs": [],
      "name": "getBalance",
      "outputs": [
        {
          "internalType": "uint256",
          "name": "",
          "type": "uint256"
        }
      ],
      "stateMutability": "view",
      "type": "function",
      "constant": true
    },
    {
      "inputs": [
        {
          "internalType": "address",
          "name": "token",
          "type": "address"
        }
      ],
      "name": "getTokenEthPrice",
      "outputs": [
        {
          "internalType": "uint256",
          "name": "",
          "type": "uint256"
        }
      ],
      "stateMutability": "view",
      "type": "function",
      "constant": true
    }
  ],
  "bytecode": "0x608060405234801561001057600080fd5b50604051610d11380380610d11833981810160405281019061003291906100db565b806000806101000a81548173ffffffffffffffffffffffffffffffffffffffff021916908373ffffffffffffffffffffffffffffffffffffffff16021790555050610108565b600080fd5b600073ffffffffffffffffffffffffffffffffffffffff82169050919050565b60006100a88261007d565b9050919050565b6100b88161009d565b81146100c357600080fd5b50565b6000815190506100d5816100af565b92915050565b6000602082840312156100f1576100f0610078565b5b60006100ff848285016100c6565b91505092915050565b610bfa806101176000396000f3fe608060405260043610610091576000357c01000000000000000000000000000000000000000000000000000000009004806370a082311161006b57806370a08231146101fe578063df00018d1461023b578063eba9c2a514610278578063efa545a9146102a15761016b565b806312065fe01461016d57806327927b3e1461019857806354876921146101d55761016b565b3661016b5734600260003373ffffffffffffffffffffffffffffffffffffffff1673ffffffffffffffffffffffffffffffffffffffff16815260200190815260200160002060008282546100e591906106f9565b9250508190555042600360003373ffffffffffffffffffffffffffffffffffffffff1673ffffffffffffffffffffffffffffffffffffffff168152602001908152602001600020819055507f2bf9518c65eff7d1f3ee4106bf0dc41267ccde0924dbfa4ab476ed5c0f45da98333460405161016192919061079f565b60405180910390a1005b005b34801561017957600080fd5b506101826102cc565b60405161018f91906107c8565b60405180910390f35b3480156101a457600080fd5b506101bf60048036038101906101ba9190610814565b6102eb565b6040516101cc9190610841565b60405180910390f35b3480156101e157600080fd5b506101fc60048036038101906101f79190610888565b61031e565b005b34801561020a57600080fd5b5061022560048036038101906102209190610814565b610446565b60405161023291906107c8565b60405180910390f35b34801561024757600080fd5b50610262600480360381019061025d9190610814565b61048f565b60405161026f91906107c8565b60405180910390f35b34801561028457600080fd5b5061029f600480360381019061029a91906108b5565b6105a5565b005b3480156102ad57600080fd5b506102b661069c565b6040516102c39190610954565b60405180910390f35b60003073ffffffffffffffffffffffffffffffffffffffff1631905090565b60066020528060005260406000206000915054906101000a900473ffffffffffffffffffffffffffffffffffffffff1681565b600260003373ffffffffffffffffffffffffffffffffffffffff1673ffffffffffffffffffffffffffffffffffffffff168152602001908152602001600020548111156103a0576040517f08c379a0000000000000000000000000000000000000000000000000000000008152600401610397906109cc565b60405180910390fd5b600033905081600260003373ffffffffffffffffffffffffffffffffffffffff1673ffffffffffffffffffffffffffffffffffffffff16815260200190815260200160002060008282546103f491906109ec565b925050819055508073ffffffffffffffffffffffffffffffffffffffff166108fc839081150290604051600060405180830381858888f19350505050158015610441573d6000803e3d6000fd5b505050565b6000600260008373ffffffffffffffffffffffffffffffffffffffff1673ffffffffffffffffffffffffffffffffffffffff168152602001908152602001600020549050919050565b600080600660008473ffffffffffffffffffffffffffffffffffffffff1673ffffffffffffffffffffffffffffffffffffffff16815260200190815260200160002060009054906101000a900473ffffffffffffffffffffffffffffffffffffffff169050600081905060008060008060008573ffffffffffffffffffffffffffffffffffffffff1663feaf968c6040518163ffffffff167c010000000000000000000000000000000000000000000000000000000002815260040160a060405180830381865afa158015610568573d6000803e3d6000fd5b505050506040513d601f19601f8201168201806040525081019061058c9190610aad565b9450945094509450945083975050505050505050919050565b8073ffffffffffffffffffffffffffffffffffffffff166323b872dd3330856040518463ffffffff167c01000000000000000000000000000000000000000000000000000000000281526004016105fe93929190610b28565b6020604051808303816000875af115801561061d573d6000803e3d6000fd5b505050506040513d601f19601f820116820180604052508101906106419190610b97565b5081600260003373ffffffffffffffffffffffffffffffffffffffff1673ffffffffffffffffffffffffffffffffffffffff168152602001908152602001600020600082825461069191906106f9565b925050819055505050565b60008054906101000a900473ffffffffffffffffffffffffffffffffffffffff1681565b6000819050919050565b7f4e487b7100000000000000000000000000000000000000000000000000000000600052601160045260246000fd5b6000610704826106c0565b915061070f836106c0565b9250827fffffffffffffffffffffffffffffffffffffffffffffffffffffffffffffffff03821115610744576107436106ca565b5b828201905092915050565b600073ffffffffffffffffffffffffffffffffffffffff82169050919050565b600061077a8261074f565b9050919050565b61078a8161076f565b82525050565b610799816106c0565b82525050565b60006040820190506107b46000830185610781565b6107c16020830184610790565b9392505050565b60006020820190506107dd6000830184610790565b92915050565b600080fd5b6107f18161076f565b81146107fc57600080fd5b50565b60008135905061080e816107e8565b92915050565b60006020828403121561082a576108296107e3565b5b6000610838848285016107ff565b91505092915050565b60006020820190506108566000830184610781565b92915050565b610865816106c0565b811461087057600080fd5b50565b6000813590506108828161085c565b92915050565b60006020828403121561089e5761089d6107e3565b5b60006108ac84828501610873565b91505092915050565b600080604083850312156108cc576108cb6107e3565b5b60006108da85828601610873565b92505060206108eb858286016107ff565b9150509250929050565b6000819050919050565b600061091a6109156109108461074f565b6108f5565b61074f565b9050919050565b600061092c826108ff565b9050919050565b600061093e82610921565b9050919050565b61094e81610933565b82525050565b60006020820190506109696000830184610945565b92915050565b600082825260208201905092915050565b7f596f7520646f6e277420656e6f75677468206d6f6e6579000000000000000000600082015250565b60006109b660178361096f565b91506109c182610980565b602082019050919050565b600060208201905081810360008301526109e5816109a9565b9050919050565b60006109f7826106c0565b9150610a02836106c0565b925082821015610a1557610a146106ca565b5b828203905092915050565b600069ffffffffffffffffffff82169050919050565b610a3f81610a20565b8114610a4a57600080fd5b50565b600081519050610a5c81610a36565b92915050565b6000819050919050565b610a7581610a62565b8114610a8057600080fd5b50565b600081519050610a9281610a6c565b92915050565b600081519050610aa78161085c565b92915050565b600080600080600060a08688031215610ac957610ac86107e3565b5b6000610ad788828901610a4d565b9550506020610ae888828901610a83565b9450506040610af988828901610a98565b9350506060610b0a88828901610a98565b9250506080610b1b88828901610a4d565b9150509295509295909350565b6000606082019050610b3d6000830186610781565b610b4a6020830185610781565b610b576040830184610790565b949350505050565b60008115159050919050565b610b7481610b5f565b8114610b7f57600080fd5b50565b600081519050610b9181610b6b565b92915050565b600060208284031215610bad57610bac6107e3565b5b6000610bbb84828501610b82565b9150509291505056fea2646970667358221220a48c8bf634b91e3d8ab64bf5c344fc4db6e1e4c9baef38b081874ddef9055f6b64736f6c634300080c0033",
  "immutableReferences": {},
  "source": "pragma solidity 0.8.12;\n\nimport \"@openzeppelin/contracts/utils/math/SafeMath.sol\";\nimport \"@openzeppelin/contracts/token/ERC20/utils/SafeERC20.sol\";\nimport \"@chainlink/contracts/src/v0.8/interfaces/AggregatorV3Interface.sol\";\nimport \"@chainlink/contracts/src/v0.8/ChainlinkClient.sol\";\nimport \"@openzeppelin/contracts/token/ERC20/IERC20.sol\";\nimport \"./Rec.sol\";\n\ncontract stakingCore {\n    using SafeMath for uint256;\n    IERC20 public recToken;\n    Rec rec;\n    // AggregatorV3Interface internal priceFeed;\n    mapping(address => uint256) private balance;\n    mapping(address => uint256) private depositTime;\n    mapping(address => uint256) private lastRewardTime;\n    mapping(address => uint256) private rewardValue;\n    mapping(address => address) public tokenPriceFeedMapping;\n\n    event onDeposit(address from, uint256 value);\n\n    constructor(address _recTokenAddress) public {\n        recToken = IERC20(_recTokenAddress);\n        // priceFeed = AggregatorV3Interface(\n        //     0x9326BFA02ADD2366b30bacB125260Af641031331\n        // );\n    }\n\n    receive() external payable {\n        balance[msg.sender] += msg.value;\n        depositTime[msg.sender] = block.timestamp;\n        emit onDeposit(msg.sender, msg.value);\n    }\n\n    function stakeERC20(uint256 _amount, address _tokenAddress) public {\n        IERC20(_tokenAddress).transferFrom(msg.sender, address(this), _amount);\n        balance[msg.sender] += _amount;\n    }\n\n    function withdrawMoney(uint256 value) public {\n        require(value <= balance[msg.sender], \"You don't enougth money\");\n        address payable to = payable(msg.sender);\n        balance[msg.sender] -= value;\n        to.transfer(value);\n    }\n\n    function reward(address _address) private {\n        require(\n            lastRewardTime[_address] >= lastRewardTime[_address] + 24 hours,\n            \"Not enought time spent\"\n        );\n        //  rec.mint(val, _address);\n        lastRewardTime[_address] = block.timestamp;\n    }\n\n    function balanceOf(address _address) public view returns (uint256) {\n        return balance[_address];\n    }\n\n    function getBalance() public view returns (uint256) {\n        return address(this).balance;\n    }\n\n    function getTokenEthPrice(address token) public view returns (uint256) {\n        address priceFeedAddress = tokenPriceFeedMapping[token];\n        AggregatorV3Interface priceFeed = AggregatorV3Interface(\n            priceFeedAddress\n        );\n        (\n            uint80 roundID,\n            int256 price,\n            uint256 startedAt,\n            uint256 timeStamp,\n            uint80 answeredInRound\n        ) = priceFeed.latestRoundData();\n        return uint256(price);\n    }\n\n    fallback() external payable {}\n}\n",
  "sourcePath": "F:\\Defi-4-main\\contracts\\StakingCore.sol",
  "compiler": {
    "name": "solc",
    "version": "0.8.12+commit.f00d7308.Emscripten.clang"
  },
  "schemaVersion": "3.4.3",
  "updatedAt": "2022-03-10T00:10:01.375Z",
  "networkType": "ethereum",
  "devdoc": {
    "kind": "dev",
    "methods": {},
    "version": 1
  },
  "userdoc": {
    "kind": "user",
    "methods": {},
    "version": 1
  }
}