{
  "contractName": "StakingCore",
  "abi": [
    {
      "inputs": [
        {
          "internalType": "address",
          "name": "_token",
          "type": "address"
        },
        {
          "internalType": "address",
          "name": "_sender",
          "type": "address"
        },
        {
          "internalType": "address",
          "name": "_recipient",
          "type": "address"
        },
        {
          "internalType": "uint256",
          "name": "_amount",
          "type": "uint256"
        }
      ],
      "name": "stakeERC20",
      "outputs": [],
      "stateMutability": "nonpayable",
      "type": "function"
    },
    {
      "inputs": [
        {
          "internalType": "address",
          "name": "_token",
          "type": "address"
        },
        {
          "internalType": "address",
          "name": "_sender",
          "type": "address"
        }
      ],
      "name": "getBalance",
      "outputs": [
        {
          "internalType": "uint256",
          "name": "",
          "type": "uint256"
        }
      ],
      "stateMutability": "nonpayable",
      "type": "function"
    }
  ],
  "bytecode": "0x608060405234801561001057600080fd5b5061048e806100206000396000f3fe608060405234801561001057600080fd5b5060043610610053576000357c010000000000000000000000000000000000000000000000000000000090048063c395c03714610058578063d4fac45d14610074575b600080fd5b610072600480360381019061006d919061027f565b6100a4565b005b61008e600480360381019061008991906102e6565b610147565b60405161009b9190610335565b60405180910390f35b8373ffffffffffffffffffffffffffffffffffffffff166323b872dd8484846040518463ffffffff167c01000000000000000000000000000000000000000000000000000000000281526004016100fd9392919061035f565b6020604051808303816000875af115801561011c573d6000803e3d6000fd5b505050506040513d601f19601f8201168201806040525081019061014091906103ce565b5050505050565b60008273ffffffffffffffffffffffffffffffffffffffff166370a08231836040518263ffffffff167c010000000000000000000000000000000000000000000000000000000002815260040161019e91906103fb565b602060405180830381865afa1580156101bb573d6000803e3d6000fd5b505050506040513d601f19601f820116820180604052508101906101df919061042b565b5092915050565b600080fd5b600073ffffffffffffffffffffffffffffffffffffffff82169050919050565b6000610216826101eb565b9050919050565b6102268161020b565b811461023157600080fd5b50565b6000813590506102438161021d565b92915050565b6000819050919050565b61025c81610249565b811461026757600080fd5b50565b60008135905061027981610253565b92915050565b60008060008060808587031215610299576102986101e6565b5b60006102a787828801610234565b94505060206102b887828801610234565b93505060406102c987828801610234565b92505060606102da8782880161026a565b91505092959194509250565b600080604083850312156102fd576102fc6101e6565b5b600061030b85828601610234565b925050602061031c85828601610234565b9150509250929050565b61032f81610249565b82525050565b600060208201905061034a6000830184610326565b92915050565b6103598161020b565b82525050565b60006060820190506103746000830186610350565b6103816020830185610350565b61038e6040830184610326565b949350505050565b60008115159050919050565b6103ab81610396565b81146103b657600080fd5b50565b6000815190506103c8816103a2565b92915050565b6000602082840312156103e4576103e36101e6565b5b60006103f2848285016103b9565b91505092915050565b60006020820190506104106000830184610350565b92915050565b60008151905061042581610253565b92915050565b600060208284031215610441576104406101e6565b5b600061044f84828501610416565b9150509291505056fea2646970667358221220181d3b66982bf79e32303f849805f402d6dfc62040d964db70cc0e33fbd3077164736f6c634300080c0033",
  "immutableReferences": {},
  "source": "pragma solidity 0.8.12;\r\n\r\nimport \"@openzeppelin/contracts/utils/math/SafeMath.sol\";\r\nimport \"@openzeppelin/contracts/token/ERC20/utils/SafeERC20.sol\";\r\nimport \"@chainlink/contracts/src/v0.8/interfaces/AggregatorV3Interface.sol\";\r\nimport \"@chainlink/contracts/src/v0.8/ChainlinkClient.sol\";\r\nimport \"@openzeppelin/contracts/token/ERC20/IERC20.sol\";\r\nimport \"hardhat/console.sol\";\r\nimport \"./Rec.sol\";\r\n\r\ncontract StakingCore {\r\n    function stakeERC20(\r\n        address _token,\r\n        address _sender,\r\n        address _recipient,\r\n        uint256 _amount\r\n    ) external {\r\n        IERC20(_token).transferFrom(_sender, _recipient, _amount);\r\n    }\r\n\r\n    function getBalance(address _token, address _sender)\r\n        external\r\n        returns (uint256)\r\n    {\r\n        IERC20(_token).balanceOf(_sender);\r\n    }\r\n}\r\n",
  "sourcePath": "C:\\Users\\Tristan\\Desktop\\ALyra\\Defi-4\\contracts\\StakingCore.sol",
  "compiler": {
    "name": "solc",
    "version": "0.8.12+commit.f00d7308.Emscripten.clang"
  },
  "schemaVersion": "3.4.4",
  "updatedAt": "2022-03-20T20:08:43.772Z",
  "devdoc": {
    "kind": "dev",
    "methods": {},
    "version": 1
  },
  "userdoc": {
    "kind": "user",
    "methods": {},
    "version": 1
  }
}