{
  "contractName": "stakingCore",
  "abi": [
    {
      "anonymous": false,
      "inputs": [
        {
          "indexed": false,
          "internalType": "address",
          "name": "from",
          "type": "address"
        },
        {
          "indexed": false,
          "internalType": "uint256",
          "name": "value",
          "type": "uint256"
        }
      ],
      "name": "onDeposit",
      "type": "event"
    },
    {
      "stateMutability": "payable",
      "type": "fallback",
      "payable": true
    },
    {
      "stateMutability": "payable",
      "type": "receive",
      "payable": true
    },
    {
      "inputs": [
        {
          "internalType": "address",
          "name": "_address",
          "type": "address"
        }
      ],
      "name": "balanceOf",
      "outputs": [
        {
          "internalType": "uint256",
          "name": "",
          "type": "uint256"
        }
      ],
      "stateMutability": "view",
      "type": "function",
      "constant": true
    },
    {
      "inputs": [
        {
          "internalType": "uint256",
          "name": "value",
          "type": "uint256"
        }
      ],
      "name": "withdrawMoney",
      "outputs": [],
      "stateMutability": "nonpayable",
      "type": "function"
    },
    {
      "inputs": [],
      "name": "getBalance",
      "outputs": [
        {
          "internalType": "uint256",
          "name": "",
          "type": "uint256"
        }
      ],
      "stateMutability": "view",
      "type": "function",
      "constant": true
    }
  ],
  "bytecode": "0x608060405234801561001057600080fd5b506105cb806100206000396000f3fe608060405260043610610055576000357c01000000000000000000000000000000000000000000000000000000009004806312065fe0146100ec578063548769211461011757806370a0823114610140576100ea565b366100ea57346000803373ffffffffffffffffffffffffffffffffffffffff1673ffffffffffffffffffffffffffffffffffffffff16815260200190815260200160002060008282546100a89190610343565b925050819055507f2bf9518c65eff7d1f3ee4106bf0dc41267ccde0924dbfa4ab476ed5c0f45da9833346040516100e09291906103e9565b60405180910390a1005b005b3480156100f857600080fd5b5061010161017d565b60405161010e9190610412565b60405180910390f35b34801561012357600080fd5b5061013e6004803603810190610139919061045e565b61019c565b005b34801561014c57600080fd5b50610167600480360381019061016291906104b7565b6102c2565b6040516101749190610412565b60405180910390f35b60003073ffffffffffffffffffffffffffffffffffffffff1631905090565b6000803373ffffffffffffffffffffffffffffffffffffffff1673ffffffffffffffffffffffffffffffffffffffff1681526020019081526020016000205481111561021d576040517f08c379a000000000000000000000000000000000000000000000000000000000815260040161021490610541565b60405180910390fd5b6000339050816000803373ffffffffffffffffffffffffffffffffffffffff1673ffffffffffffffffffffffffffffffffffffffff16815260200190815260200160002060008282546102709190610561565b925050819055508073ffffffffffffffffffffffffffffffffffffffff166108fc839081150290604051600060405180830381858888f193505050501580156102bd573d6000803e3d6000fd5b505050565b60008060008373ffffffffffffffffffffffffffffffffffffffff1673ffffffffffffffffffffffffffffffffffffffff168152602001908152602001600020549050919050565b6000819050919050565b7f4e487b7100000000000000000000000000000000000000000000000000000000600052601160045260246000fd5b600061034e8261030a565b91506103598361030a565b9250827fffffffffffffffffffffffffffffffffffffffffffffffffffffffffffffffff0382111561038e5761038d610314565b5b828201905092915050565b600073ffffffffffffffffffffffffffffffffffffffff82169050919050565b60006103c482610399565b9050919050565b6103d4816103b9565b82525050565b6103e38161030a565b82525050565b60006040820190506103fe60008301856103cb565b61040b60208301846103da565b9392505050565b600060208201905061042760008301846103da565b92915050565b600080fd5b61043b8161030a565b811461044657600080fd5b50565b60008135905061045881610432565b92915050565b6000602082840312156104745761047361042d565b5b600061048284828501610449565b91505092915050565b610494816103b9565b811461049f57600080fd5b50565b6000813590506104b18161048b565b92915050565b6000602082840312156104cd576104cc61042d565b5b60006104db848285016104a2565b91505092915050565b600082825260208201905092915050565b7f596f7520646f6e277420656e6f75677468206d6f6e6579000000000000000000600082015250565b600061052b6017836104e4565b9150610536826104f5565b602082019050919050565b6000602082019050818103600083015261055a8161051e565b9050919050565b600061056c8261030a565b91506105778361030a565b92508282101561058a57610589610314565b5b82820390509291505056fea26469706673582212209202b0bea70c73dd56c235d71314ec167971acae8b9d9e36ee5f81f999990e2364736f6c634300080c0033",
  "immutableReferences": {},
  "source": "pragma solidity 0.8.12;\r\n\r\nimport \"@openzeppelin/contracts/utils/math/SafeMath.sol\";\r\nimport \"@openzeppelin/contracts/token/ERC20/utils/SafeERC20.sol\";\r\n\r\ncontract stakingCore {\r\n    using SafeMath for uint256;\r\n    mapping(address => uint256) private balance;\r\n\r\n    event onDeposit(address from, uint256 value);\r\n\r\n    receive() external payable {\r\n        balance[msg.sender] += msg.value;\r\n        emit onDeposit(msg.sender, msg.value);\r\n    }\r\n\r\n    fallback() external payable {}\r\n\r\n    function balanceOf(address _address) public view returns (uint256) {\r\n        return balance[_address];\r\n    }\r\n\r\n    function withdrawMoney(uint256 value) public {\r\n        require(value <= balance[msg.sender], \"You don't enougth money\");\r\n        address payable to = payable(msg.sender);\r\n        balance[msg.sender] -= value;\r\n        to.transfer(value);\r\n    }\r\n\r\n    function getBalance() public view returns (uint256) {\r\n        return address(this).balance;\r\n    }\r\n}\r\n",
  "sourcePath": "C:\\Users\\Tristan\\Desktop\\ALyra\\Defi-4\\contracts\\StakingCore.sol",
  "compiler": {
    "name": "solc",
    "version": "0.8.12+commit.f00d7308.Emscripten.clang"
  },
  "schemaVersion": "3.4.4",
  "updatedAt": "2022-03-06T19:21:23.699Z",
  "networkType": "ethereum",
  "devdoc": {
    "kind": "dev",
    "methods": {},
    "version": 1
  },
  "userdoc": {
    "kind": "user",
    "methods": {},
    "version": 1
  }
}